{"contracts/manager.sol":{"WarrantyManagerV1":{"abi":[{"inputs":[],"name":"AccessControlBadConfirmation","type":"error"},{"inputs":[{"internalType":"address","name":"account","type":"address"},{"internalType":"bytes32","name":"neededRole","type":"bytes32"}],"name":"AccessControlUnauthorizedAccount","type":"error"},{"inputs":[],"name":"EnforcedPause","type":"error"},{"inputs":[],"name":"ExpectedPause","type":"error"},{"inputs":[],"name":"InvalidInitialization","type":"error"},{"inputs":[],"name":"NotInitializing","type":"error"},{"inputs":[],"name":"ReentrancyGuardReentrantCall","type":"error"},{"anonymous":false,"inputs":[{"indexed":false,"internalType":"uint64","name":"version","type":"uint64"}],"name":"Initialized","type":"event"},{"anonymous":false,"inputs":[{"indexed":false,"internalType":"address","name":"account","type":"address"}],"name":"Paused","type":"event"},{"anonymous":false,"inputs":[{"indexed":true,"internalType":"bytes32","name":"role","type":"bytes32"},{"indexed":true,"internalType":"bytes32","name":"previousAdminRole","type":"bytes32"},{"indexed":true,"internalType":"bytes32","name":"newAdminRole","type":"bytes32"}],"name":"RoleAdminChanged","type":"event"},{"anonymous":false,"inputs":[{"indexed":true,"internalType":"bytes32","name":"role","type":"bytes32"},{"indexed":true,"internalType":"address","name":"account","type":"address"},{"indexed":true,"internalType":"address","name":"sender","type":"address"}],"name":"RoleGranted","type":"event"},{"anonymous":false,"inputs":[{"indexed":true,"internalType":"bytes32","name":"role","type":"bytes32"},{"indexed":true,"internalType":"address","name":"account","type":"address"},{"indexed":true,"internalType":"address","name":"sender","type":"address"}],"name":"RoleRevoked","type":"event"},{"anonymous":false,"inputs":[{"indexed":false,"internalType":"address","name":"account","type":"address"}],"name":"Unpaused","type":"event"},{"anonymous":false,"inputs":[{"indexed":true,"internalType":"uint256","name":"tokenId","type":"uint256"}],"name":"WarrantyDisabled","type":"event"},{"anonymous":false,"inputs":[{"indexed":true,"internalType":"uint256","name":"tokenId","type":"uint256"},{"indexed":false,"internalType":"uint64","name":"newEndDate","type":"uint64"}],"name":"WarrantyExtended","type":"event"},{"anonymous":false,"inputs":[{"indexed":true,"internalType":"uint256","name":"tokenId","type":"uint256"},{"indexed":false,"internalType":"uint64","name":"startDate","type":"uint64"},{"indexed":false,"internalType":"uint64","name":"endDate","type":"uint64"}],"name":"WarrantyIssued","type":"event"},{"anonymous":false,"inputs":[{"indexed":true,"internalType":"uint256","name":"tokenId","type":"uint256"},{"indexed":true,"internalType":"address","name":"previousOwner","type":"address"},{"indexed":true,"internalType":"address","name":"newOwner","type":"address"}],"name":"WarrantyTransferred","type":"event"},{"inputs":[],"name":"ADMIN_ROLE","outputs":[{"internalType":"bytes32","name":"","type":"bytes32"}],"stateMutability":"view","type":"function"},{"inputs":[],"name":"DEFAULT_ADMIN_ROLE","outputs":[{"internalType":"bytes32","name":"","type":"bytes32"}],"stateMutability":"view","type":"function"},{"inputs":[],"name":"MAX_WARRANTY_DURATION","outputs":[{"internalType":"uint64","name":"","type":"uint64"}],"stateMutability":"view","type":"function"},{"inputs":[],"name":"MINTER_ROLE","outputs":[{"internalType":"bytes32","name":"","type":"bytes32"}],"stateMutability":"view","type":"function"},{"inputs":[{"internalType":"address","name":"stableLogicAddress","type":"address"}],"name":"auditLogicContract","outputs":[],"stateMutability":"view","type":"function"},{"inputs":[{"internalType":"uint256[]","name":"tokenIds","type":"uint256[]"}],"name":"disableWarrantiesBatch","outputs":[],"stateMutability":"nonpayable","type":"function"},{"inputs":[{"internalType":"uint256","name":"tokenId","type":"uint256"}],"name":"disableWarranty","outputs":[],"stateMutability":"nonpayable","type":"function"},{"inputs":[{"internalType":"uint256[]","name":"tokenIds","type":"uint256[]"},{"internalType":"uint64[]","name":"durations","type":"uint64[]"}],"name":"extendWarrantiesBatch","outputs":[],"stateMutability":"nonpayable","type":"function"},{"inputs":[{"internalType":"uint256","name":"tokenId","type":"uint256"},{"internalType":"uint64","name":"additionalDays","type":"uint64"}],"name":"extendWarranty","outputs":[],"stateMutability":"nonpayable","type":"function"},{"inputs":[{"internalType":"address","name":"logicAddress","type":"address"}],"name":"getLogicContractVersion","outputs":[{"internalType":"string","name":"","type":"string"}],"stateMutability":"view","type":"function"},{"inputs":[{"internalType":"bytes32","name":"role","type":"bytes32"}],"name":"getRoleAdmin","outputs":[{"internalType":"bytes32","name":"","type":"bytes32"}],"stateMutability":"view","type":"function"},{"inputs":[{"internalType":"address","name":"owner","type":"address"}],"name":"getTokenIdsByOwner","outputs":[{"internalType":"uint256[]","name":"","type":"uint256[]"}],"stateMutability":"view","type":"function"},{"inputs":[{"internalType":"uint256","name":"tokenId","type":"uint256"}],"name":"getWarrantyEndDate","outputs":[{"internalType":"uint64","name":"","type":"uint64"}],"stateMutability":"view","type":"function"},{"inputs":[{"internalType":"uint256","name":"tokenId","type":"uint256"}],"name":"getWarrantyInfo","outputs":[{"internalType":"uint64","name":"startDate","type":"uint64"},{"internalType":"uint64","name":"endDate","type":"uint64"},{"internalType":"bool","name":"isActive","type":"bool"}],"stateMutability":"view","type":"function"},{"inputs":[{"internalType":"uint256","name":"tokenId","type":"uint256"}],"name":"getWarrantyStartDate","outputs":[{"internalType":"uint64","name":"","type":"uint64"}],"stateMutability":"view","type":"function"},{"inputs":[{"internalType":"bytes32","name":"role","type":"bytes32"},{"internalType":"address","name":"account","type":"address"}],"name":"grantRole","outputs":[],"stateMutability":"nonpayable","type":"function"},{"inputs":[{"internalType":"bytes32","name":"role","type":"bytes32"},{"internalType":"address","name":"account","type":"address"}],"name":"hasRole","outputs":[{"internalType":"bool","name":"","type":"bool"}],"stateMutability":"view","type":"function"},{"inputs":[{"internalType":"address","name":"admin","type":"address"},{"internalType":"address","name":"minter","type":"address"},{"internalType":"address","name":"nftAddress","type":"address"},{"internalType":"address","name":"_proxyAddress","type":"address"}],"name":"initialize","outputs":[],"stateMutability":"nonpayable","type":"function"},{"inputs":[{"internalType":"uint256","name":"tokenId","type":"uint256"}],"name":"isWarrantyActive","outputs":[{"internalType":"bool","name":"","type":"bool"}],"stateMutability":"view","type":"function"},{"inputs":[{"internalType":"uint256","name":"tokenId","type":"uint256"}],"name":"isWarrantyExpired","outputs":[{"internalType":"bool","name":"","type":"bool"}],"stateMutability":"view","type":"function"},{"inputs":[{"internalType":"uint256","name":"tokenId","type":"uint256"},{"internalType":"uint64","name":"duration","type":"uint64"}],"name":"issueWarranty","outputs":[],"stateMutability":"nonpayable","type":"function"},{"inputs":[],"name":"nftContract","outputs":[{"internalType":"contract IERC721","name":"","type":"address"}],"stateMutability":"view","type":"function"},{"inputs":[],"name":"pause","outputs":[],"stateMutability":"nonpayable","type":"function"},{"inputs":[],"name":"paused","outputs":[{"internalType":"bool","name":"","type":"bool"}],"stateMutability":"view","type":"function"},{"inputs":[],"name":"proxy","outputs":[{"internalType":"contract TransparentUpgradeableProxy","name":"","type":"address"}],"stateMutability":"view","type":"function"},{"inputs":[],"name":"proxyAddress","outputs":[{"internalType":"address","name":"","type":"address"}],"stateMutability":"view","type":"function"},{"inputs":[{"internalType":"bytes32","name":"role","type":"bytes32"},{"internalType":"address","name":"callerConfirmation","type":"address"}],"name":"renounceRole","outputs":[],"stateMutability":"nonpayable","type":"function"},{"inputs":[{"internalType":"bytes32","name":"role","type":"bytes32"},{"internalType":"address","name":"account","type":"address"}],"name":"revokeRole","outputs":[],"stateMutability":"nonpayable","type":"function"},{"inputs":[{"internalType":"address","name":"stableLogicAddress","type":"address"}],"name":"rollbackLogicContract","outputs":[],"stateMutability":"nonpayable","type":"function"},{"inputs":[{"internalType":"bytes4","name":"interfaceId","type":"bytes4"}],"name":"supportsInterface","outputs":[{"internalType":"bool","name":"","type":"bool"}],"stateMutability":"view","type":"function"},{"inputs":[{"internalType":"uint256","name":"tokenId","type":"uint256"},{"internalType":"address","name":"newOwner","type":"address"}],"name":"transferWarranty","outputs":[],"stateMutability":"nonpayable","type":"function"},{"inputs":[],"name":"unpause","outputs":[],"stateMutability":"nonpayable","type":"function"},{"inputs":[{"internalType":"address","name":"stableLogicAddress","type":"address"}],"name":"upgradeTo","outputs":[],"stateMutability":"nonpayable","type":"function"},{"inputs":[],"name":"version","outputs":[{"internalType":"string","name":"","type":"string"}],"stateMutability":"pure","type":"function"},{"inputs":[{"internalType":"uint256","name":"tokenId","type":"uint256"}],"name":"warrantyExists","outputs":[{"internalType":"bool","name":"","type":"bool"}],"stateMutability":"view","type":"function"}],"evm":{"bytecode":{"linkReferences":{},"object":"6080604052348015600f57600080fd5b506001805460ff1916815560025561204e8061002c6000396000f3fe608060405234801561001057600080fd5b50600436106102115760003560e01c80636970bb0a11610125578063ad150d3d116100ad578063d547741f1161007c578063d547741f1461050e578063d56d229d14610521578063ec55688914610534578063ecf6746614610547578063f8c8765e146105d257600080fd5b8063ad150d3d146104a9578063ad36a191146104d3578063b8f04a58146104e6578063d5391393146104f957600080fd5b80638456cb59116100f45780638456cb591461046057806390581cdb1461046857806391d148541461047b578063995a343b1461048e578063a217fddf146104a157600080fd5b80636970bb0a146104055780636f2a023e1461042557806375b238fc146104385780637bef4f3a1461044d57600080fd5b80633659cfe6116101a857806354fd4d501161017757806354fd4d50146103695780635c975abb14610393578063618a96141461039e57806362a3a3b5146103c757806365f64bdd146103f257600080fd5b80633659cfe6146103305780633b8b8387146103435780633f4ba83a1461034e5780635324bcf91461035657600080fd5b8063248a9ca3116101e4578063248a9ca3146102c65780632b5e45fd146102f75780632f2ff15d1461030a57806336568abe1461031d57600080fd5b806301ffc9a71461021657806302315ab51461023e57806304473c4d1461028657806323f5c02d1461029b575b600080fd5b610229610224366004611ad0565b6105e5565b60405190151581526020015b60405180910390f35b61026e61024c366004611b01565b600090815260066020526040902054600160401b90046001600160401b031690565b6040516001600160401b039091168152602001610235565b610299610294366004611b01565b61061c565b005b6005546102ae906001600160a01b031681565b6040516001600160a01b039091168152602001610235565b6102e96102d4366004611b01565b60009081526020819052604090206001015490565b604051908152602001610235565b610299610305366004611b65565b6106b5565b610299610318366004611bbb565b6107c7565b61029961032b366004611bbb565b6107ec565b61029961033e366004611beb565b610824565b61026e6312cc030081565b6102996109d4565b610299610364366004611c08565b6109f7565b6040805180820190915260058152640312e302e360dc1b60208201525b6040516102359190611c9b565b60015460ff16610229565b61026e6103ac366004611b01565b6000908152600660205260409020546001600160401b031690565b6102296103d5366004611b01565b6000908152600660205260409020546001600160401b0316151590565b610386610400366004611beb565b610b68565b610418610413366004611beb565b610bd0565b6040516102359190611cce565b610299610433366004611d2d565b610c3c565b6102e9600080516020611ff983398151915281565b61022961045b366004611b01565b610d84565b610299610ddd565b610299610476366004611bbb565b610dfd565b610229610489366004611bbb565b61113b565b61029961049c366004611beb565b611164565b6102e9600081565b6102296104b7366004611b01565b600090815260066020526040902054600160801b900460ff1690565b6102996104e1366004611d2d565b6112f1565b6102996104f4366004611beb565b6114cf565b6102e9600080516020611fd983398151915281565b61029961051c366004611bbb565b611562565b6004546102ae906001600160a01b031681565b6003546102ae906001600160a01b031681565b6105aa610555366004611b01565b600090815260066020908152604091829020825160608101845290546001600160401b03808216808452600160401b8304909116938301849052600160801b90910460ff161515919093018190529192909190565b604080516001600160401b039485168152939092166020840152151590820152606001610235565b6102996105e0366004611d59565b611587565b60006001600160e01b03198216637965db0b60e01b148061061657506301ffc9a760e01b6001600160e01b03198316145b92915050565b600080516020611ff9833981519152610634816116fd565b6000828152600660205260409020546001600160401b03166106715760405162461bcd60e51b815260040161066890611db5565b60405180910390fd5b600082815260066020526040808220805460ff60801b191690555183917f39f89407a0be143807bae44759600c5043b80aa64cf357a8320bfe93587744ec91a25050565b600080516020611ff98339815191526106cd816116fd565b60005b828110156107c1576107118484838181106106ed576106ed611dec565b905060200201356000908152600660205260409020546001600160401b0316151590565b61072d5760405162461bcd60e51b815260040161066890611db5565b60006006600086868581811061074557610745611dec565b90506020020135815260200190815260200160002060000160106101000a81548160ff02191690831515021790555083838281811061078657610786611dec565b905060200201357f39f89407a0be143807bae44759600c5043b80aa64cf357a8320bfe93587744ec60405160405180910390a26001016106d0565b50505050565b6000828152602081905260409020600101546107e2816116fd565b6107c18383611707565b6001600160a01b03811633146108155760405163334bd91960e11b815260040160405180910390fd5b61081f8282611799565b505050565b600080516020611ff983398151915261083c816116fd565b610844611804565b61084c61182a565b6001600160a01b0382166108945760405162461bcd60e51b815260206004820152600f60248201526e496e76616c6964206164647265737360881b6044820152606401610668565b60405163995a343b60e01b81526001600160a01b0383166004820152309063995a343b9060240160006040518083038186803b1580156108d357600080fd5b505afa1580156108e7573d6000803e3d6000fd5b50506003546040516001600160a01b0386811660248301526000945090911691506044015b60408051601f198184030181529181526020820180516001600160e01b0316631b2ce7f360e11b179052516109419190611e02565b6000604051808303816000865af19150503d806000811461097e576040519150601f19603f3d011682016040523d82523d6000602084013e610983565b606091505b50509050806109c55760405162461bcd60e51b815260206004820152600e60248201526d155c19dc9859194819985a5b195960921b6044820152606401610668565b506109d06001600255565b5050565b600080516020611ff98339815191526109ec816116fd565b6109f4611852565b50565b600080516020611fd9833981519152610a0f816116fd565b610a17611804565b610a1f61182a565b838214610a625760405162461bcd60e51b81526020600482015260116024820152704d69736d6174636865642061727261797360781b6044820152606401610668565b60005b84811015610b56576000868683818110610a8157610a81611dec565b9050602002013590506000858584818110610a9e57610a9e611dec565b9050602002016020810190610ab39190611e1e565b600083815260066020526040902054610adc9190600160401b90046001600160401b0316611e4f565b600083815260066020908152604091829020805467ffffffffffffffff60401b1916600160401b6001600160401b03861690810291909117909155915191825291925083917f0a96b3a9b8c2c2e35fae1ef064d429b87564ec1ed72bf0f3409a4d80b9989ba8910160405180910390a25050600101610a65565b50610b616001600255565b5050505050565b6060816001600160a01b03166354fd4d506040518163ffffffff1660e01b8152600401600060405180830381865afa158015610ba8573d6000803e3d6000fd5b505050506040513d6000823e601f3d908101601f191682016040526106169190810190611e84565b6001600160a01b038116600090815260076020908152604091829020805483518184028101840190945280845260609392830182828015610c3057602002820191906000526020600020905b815481526020019060010190808311610c1c575b50505050509050919050565b600080516020611fd9833981519152610c54816116fd565b6000838152600660205260409020546001600160401b0316610c885760405162461bcd60e51b815260040161066890611db5565b600083815260066020526040812054610cb2908490600160401b90046001600160401b0316611e4f565b90506312cc03006001600160401b0382161115610d115760405162461bcd60e51b815260206004820152601e60248201527f4475726174696f6e2065786365656473206d6178696d756d206c696d697400006044820152606401610668565b600084815260066020908152604091829020805467ffffffffffffffff60401b1916600160401b6001600160401b03861690810291909117909155915191825285917f0a96b3a9b8c2c2e35fae1ef064d429b87564ec1ed72bf0f3409a4d80b9989ba8910160405180910390a250505050565b6000818152600660205260408120546001600160401b0316610db85760405162461bcd60e51b815260040161066890611db5565b50600090815260066020526040902054600160401b90046001600160401b0316421190565b600080516020611ff9833981519152610df5816116fd565b6109f46118a4565b600480546040516331a9108f60e11b815291820184905233916001600160a01b0390911690636352211e90602401602060405180830381865afa158015610e48573d6000803e3d6000fd5b505050506040513d601f19601f82011682018060405250810190610e6c9190611f36565b6001600160a01b031614610ecd5760405162461bcd60e51b815260206004820152602260248201527f43616c6c6572206973206e6f7420746865206f776e6572206f6620746865204e604482015261119560f21b6064820152608401610668565b6000828152600660205260409020546001600160401b0316610f015760405162461bcd60e51b815260040161066890611db5565b600480546040516331a9108f60e11b81529182018490526000916001600160a01b0390911690636352211e90602401602060405180830381865afa158015610f4d573d6000803e3d6000fd5b505050506040513d601f19601f82011682018060405250810190610f719190611f36565b60048054604051632142170760e11b81526001600160a01b038085169382019390935285831660248201526044810187905292935016906342842e0e90606401600060405180830381600087803b158015610fcb57600080fd5b505af1158015610fdf573d6000803e3d6000fd5b5050505060005b336000908152600760205260409020548110156110da5733600090815260076020526040902080548591908390811061102157611021611dec565b9060005260206000200154036110d257336000908152600760205260409020805461104e90600190611f53565b8154811061105e5761105e611dec565b60009182526020808320909101543383526007909152604090912080548390811061108b5761108b611dec565b60009182526020808320909101929092553381526007909152604090208054806110b7576110b7611f66565b600190038181906000526020600020016000905590556110da565b600101610fe6565b506001600160a01b038083166000818152600760209081526040808320805460018101825590845291832090910187905551919284169186917f097558fc5104f86fab615951680b07855cae4f5bf4f205d054607e8bed9b2e7991a4505050565b6000918252602082815260408084206001600160a01b0393909316845291905290205460ff1690565b600061116f816116fd565b6001600160a01b0382166111c55760405162461bcd60e51b815260206004820152601860248201527f496e76616c696420636f6e7472616374206164647265737300000000000000006044820152606401610668565b6000826001600160a01b03166354fd4d506040518163ffffffff1660e01b8152600401600060405180830381865afa158015611205573d6000803e3d6000fd5b505050506040513d6000823e601f3d908101601f1916820160405261122d9190810190611e84565b604080518082018252600580825264312e302e3160d81b6020808401919091528351808501909452908352640322e302e360dc1b90830152919250600061127484846118df565b1215801561128c5750600061128984836118df565b13155b610b615760405162461bcd60e51b815260206004820152603060248201527f436f6e74726163742076657273696f6e206d757374206265206265747765656e60448201526f020312e302e3120616e6420322e302e360841b6064820152608401610668565b600080516020611fd9833981519152611309816116fd565b611311611804565b6000838152600660205260409020546001600160401b0316156113765760405162461bcd60e51b815260206004820152601760248201527f57617272616e747920616c7265616479206973737565640000000000000000006044820152606401610668565b6312cc03006001600160401b03831611156113d35760405162461bcd60e51b815260206004820152601e60248201527f4475726174696f6e2065786365656473206d6178696d756d206c696d697400006044820152606401610668565b4260006113e08483611e4f565b604080516060810182526001600160401b0380861682528084166020808401918252600184860181815260008d81526006845287812096518754955192511515600160801b0260ff60801b19938816600160401b026fffffffffffffffffffffffffffffffff1990971691909716179490941716939093179093553381526007835283812080549283018155815291909120018790555190915085907fd5398b7decb3e72ed8b4261f6d8e4193d7ce854c23844b1b537ec542622bf407906114c090859085906001600160401b0392831681529116602082015260400190565b60405180910390a25050505050565b600080516020611ff98339815191526114e7816116fd565b6114ef611804565b6114f761182a565b6001600160a01b03821661153f5760405162461bcd60e51b815260206004820152600f60248201526e496e76616c6964206164647265737360881b6044820152606401610668565b6003546040516001600160a01b038481166024830152600092169060440161090c565b60008281526020819052604090206001015461157d816116fd565b6107c18383611799565b7ff0c57e16840df040f15088dc2f81fe391c3923bec73e23a9662efc9c229c6a008054600160401b810460ff1615906001600160401b03166000811580156115cc5750825b90506000826001600160401b031660011480156115e85750303b155b9050811580156115f6575080155b156116145760405163f92ee8a960e01b815260040160405180910390fd5b845467ffffffffffffffff19166001178555831561163e57845460ff60401b1916600160401b1785555b611656600080516020611ff98339815191528a611707565b5061166f600080516020611fd983398151915289611707565b5061167b60008a611707565b50600480546001600160a01b03808a166001600160a01b031992831617909255600380549289169290911691909117905583156116f257845460ff60401b19168555604051600181527fc7f505b2f371ae2175ee4913f4499e1f2633a7b5936321eed1cdaeb6115181d29060200160405180910390a15b505050505050505050565b6109f48133611a74565b6000611713838361113b565b611791576000838152602081815260408083206001600160a01b03861684529091529020805460ff191660011790556117493390565b6001600160a01b0316826001600160a01b0316847f2f8788117e7eff1d82e926ec794901d17c78024a50270940304540a733656f0d60405160405180910390a4506001610616565b506000610616565b60006117a5838361113b565b15611791576000838152602081815260408083206001600160a01b0386168085529252808320805460ff1916905551339286917ff6391f5c32d9c69d2a47ea670b442974b53935d1edc7fd64eb21e047a839171b9190a4506001610616565b60015460ff16156118285760405163d93c066560e01b815260040160405180910390fd5b565b600280540361184c57604051633ee5aeb560e01b815260040160405180910390fd5b60028055565b61185a611aad565b6001805460ff191690557f5db9ee0a495bf2e6ff9c91a7834c1ba4fdd244a5e8aa4e537bd38aeae4b073aa335b6040516001600160a01b03909116815260200160405180910390a1565b6118ac611804565b6001805460ff1916811790557f62e78cea01bee320cd4e420270b5ea74000d11b0c9f74754ebdbfc544b05a25833611887565b6000828282805b83518210806118f55750825181105b15611a67576000805b855184108015611933575085848151811061191b5761191b611dec565b6020910101516001600160f81b031916601760f91b14155b1561198a57603086858151811061194c5761194c611dec565b016020015161195e919060f81c611f7c565b60ff1661196c83600a611f95565b6119769190611fac565b91508361198281611fbf565b9450506118fe565b8451831080156119bf57508483815181106119a7576119a7611dec565b6020910101516001600160f81b031916601760f91b14155b15611a165760308584815181106119d8576119d8611dec565b01602001516119ea919060f81c611f7c565b60ff166119f882600a611f95565b611a029190611fac565b905082611a0e81611fbf565b93505061198a565b80821015611a2e576000199650505050505050610616565b80821115611a455760019650505050505050610616565b83611a4f81611fbf565b9450508280611a5d90611fbf565b93505050506118e6565b5060009695505050505050565b611a7e828261113b565b6109d05760405163e2517d3f60e01b81526001600160a01b038216600482015260248101839052604401610668565b60015460ff1661182857604051638dfc202b60e01b815260040160405180910390fd5b600060208284031215611ae257600080fd5b81356001600160e01b031981168114611afa57600080fd5b9392505050565b600060208284031215611b1357600080fd5b5035919050565b60008083601f840112611b2c57600080fd5b5081356001600160401b03811115611b4357600080fd5b6020830191508360208260051b8501011115611b5e57600080fd5b9250929050565b60008060208385031215611b7857600080fd5b82356001600160401b03811115611b8e57600080fd5b611b9a85828601611b1a565b90969095509350505050565b6001600160a01b03811681146109f457600080fd5b60008060408385031215611bce57600080fd5b823591506020830135611be081611ba6565b809150509250929050565b600060208284031215611bfd57600080fd5b8135611afa81611ba6565b60008060008060408587031215611c1e57600080fd5b84356001600160401b03811115611c3457600080fd5b611c4087828801611b1a565b90955093505060208501356001600160401b03811115611c5f57600080fd5b611c6b87828801611b1a565b95989497509550505050565b60005b83811015611c92578181015183820152602001611c7a565b50506000910152565b6020815260008251806020840152611cba816040850160208701611c77565b601f01601f19169190910160400192915050565b602080825282518282018190526000918401906040840190835b81811015611d06578351835260209384019390920191600101611ce8565b509095945050505050565b80356001600160401b0381168114611d2857600080fd5b919050565b60008060408385031215611d4057600080fd5b82359150611d5060208401611d11565b90509250929050565b60008060008060808587031215611d6f57600080fd5b8435611d7a81611ba6565b93506020850135611d8a81611ba6565b92506040850135611d9a81611ba6565b91506060850135611daa81611ba6565b939692955090935050565b60208082526017908201527f57617272616e747920646f6573206e6f74206578697374000000000000000000604082015260600190565b634e487b7160e01b600052603260045260246000fd5b60008251611e14818460208701611c77565b9190910192915050565b600060208284031215611e3057600080fd5b611afa82611d11565b634e487b7160e01b600052601160045260246000fd5b6001600160401b03818116838216019081111561061657610616611e39565b634e487b7160e01b600052604160045260246000fd5b600060208284031215611e9657600080fd5b81516001600160401b03811115611eac57600080fd5b8201601f81018413611ebd57600080fd5b80516001600160401b03811115611ed657611ed6611e6e565b604051601f8201601f19908116603f011681016001600160401b0381118282101715611f0457611f04611e6e565b604052818152828201602001861015611f1c57600080fd5b611f2d826020830160208601611c77565b95945050505050565b600060208284031215611f4857600080fd5b8151611afa81611ba6565b8181038181111561061657610616611e39565b634e487b7160e01b600052603160045260246000fd5b60ff828116828216039081111561061657610616611e39565b808202811582820484141761061657610616611e39565b8082018082111561061657610616611e39565b600060018201611fd157611fd1611e39565b506001019056fe9f2df0fed2c77648de5860a4cc508cd0818c85b8b8a1ab4ceeef8d981c8956a6a49807205ce4d355092ef5a8a18f56e8913cf4a201fbe287825b095693c21775a2646970667358221220f48e96b676e81793c67331c2311c94eb7b8e769e61e53a939dc74b40acda576b64736f6c634300081c0033","opcodes":"PUSH1 0x80 PUSH1 0x40 MSTORE CALLVALUE DUP1 ISZERO PUSH1 0xF JUMPI PUSH1 0x0 DUP1 REVERT JUMPDEST POP PUSH1 0x1 DUP1 SLOAD PUSH1 0xFF NOT AND DUP2 SSTORE PUSH1 0x2 SSTORE PUSH2 0x204E DUP1 PUSH2 0x2C PUSH1 0x0 CODECOPY PUSH1 0x0 RETURN INVALID PUSH1 0x80 PUSH1 0x40 MSTORE CALLVALUE DUP1 ISZERO PUSH2 0x10 JUMPI PUSH1 0x0 DUP1 REVERT JUMPDEST POP PUSH1 0x4 CALLDATASIZE LT PUSH2 0x211 JUMPI PUSH1 0x0 CALLDATALOAD PUSH1 0xE0 SHR DUP1 PUSH4 0x6970BB0A GT PUSH2 0x125 JUMPI DUP1 PUSH4 0xAD150D3D GT PUSH2 0xAD JUMPI DUP1 PUSH4 0xD547741F GT PUSH2 0x7C JUMPI DUP1 PUSH4 0xD547741F EQ PUSH2 0x50E JUMPI DUP1 PUSH4 0xD56D229D EQ PUSH2 0x521 JUMPI DUP1 PUSH4 0xEC556889 EQ PUSH2 0x534 JUMPI DUP1 PUSH4 0xECF67466 EQ PUSH2 0x547 JUMPI DUP1 PUSH4 0xF8C8765E EQ PUSH2 0x5D2 JUMPI PUSH1 0x0 DUP1 REVERT JUMPDEST DUP1 PUSH4 0xAD150D3D EQ PUSH2 0x4A9 JUMPI DUP1 PUSH4 0xAD36A191 EQ PUSH2 0x4D3 JUMPI DUP1 PUSH4 0xB8F04A58 EQ PUSH2 0x4E6 JUMPI DUP1 PUSH4 0xD5391393 EQ PUSH2 0x4F9 JUMPI PUSH1 0x0 DUP1 REVERT JUMPDEST DUP1 PUSH4 0x8456CB59 GT PUSH2 0xF4 JUMPI DUP1 PUSH4 0x8456CB59 EQ PUSH2 0x460 JUMPI DUP1 PUSH4 0x90581CDB EQ PUSH2 0x468 JUMPI DUP1 PUSH4 0x91D14854 EQ PUSH2 0x47B JUMPI DUP1 PUSH4 0x995A343B EQ PUSH2 0x48E JUMPI DUP1 PUSH4 0xA217FDDF EQ PUSH2 0x4A1 JUMPI PUSH1 0x0 DUP1 REVERT JUMPDEST DUP1 PUSH4 0x6970BB0A EQ PUSH2 0x405 JUMPI DUP1 PUSH4 0x6F2A023E EQ PUSH2 0x425 JUMPI DUP1 PUSH4 0x75B238FC EQ PUSH2 0x438 JUMPI DUP1 PUSH4 0x7BEF4F3A EQ PUSH2 0x44D JUMPI PUSH1 0x0 DUP1 REVERT JUMPDEST DUP1 PUSH4 0x3659CFE6 GT PUSH2 0x1A8 JUMPI DUP1 PUSH4 0x54FD4D50 GT PUSH2 0x177 JUMPI DUP1 PUSH4 0x54FD4D50 EQ PUSH2 0x369 JUMPI DUP1 PUSH4 0x5C975ABB EQ PUSH2 0x393 JUMPI DUP1 PUSH4 0x618A9614 EQ PUSH2 0x39E JUMPI DUP1 PUSH4 0x62A3A3B5 EQ PUSH2 0x3C7 JUMPI DUP1 PUSH4 0x65F64BDD EQ PUSH2 0x3F2 JUMPI PUSH1 0x0 DUP1 REVERT JUMPDEST DUP1 PUSH4 0x3659CFE6 EQ PUSH2 0x330 JUMPI DUP1 PUSH4 0x3B8B8387 EQ PUSH2 0x343 JUMPI DUP1 PUSH4 0x3F4BA83A EQ PUSH2 0x34E JUMPI DUP1 PUSH4 0x5324BCF9 EQ PUSH2 0x356 JUMPI PUSH1 0x0 DUP1 REVERT JUMPDEST DUP1 PUSH4 0x248A9CA3 GT PUSH2 0x1E4 JUMPI DUP1 PUSH4 0x248A9CA3 EQ PUSH2 0x2C6 JUMPI DUP1 PUSH4 0x2B5E45FD EQ PUSH2 0x2F7 JUMPI DUP1 PUSH4 0x2F2FF15D EQ PUSH2 0x30A JUMPI DUP1 PUSH4 0x36568ABE EQ PUSH2 0x31D JUMPI PUSH1 0x0 DUP1 REVERT JUMPDEST DUP1 PUSH4 0x1FFC9A7 EQ PUSH2 0x216 JUMPI DUP1 PUSH4 0x2315AB5 EQ PUSH2 0x23E JUMPI DUP1 PUSH4 0x4473C4D EQ PUSH2 0x286 JUMPI DUP1 PUSH4 0x23F5C02D EQ PUSH2 0x29B JUMPI JUMPDEST PUSH1 0x0 DUP1 REVERT JUMPDEST PUSH2 0x229 PUSH2 0x224 CALLDATASIZE PUSH1 0x4 PUSH2 0x1AD0 JUMP JUMPDEST PUSH2 0x5E5 JUMP JUMPDEST PUSH1 0x40 MLOAD SWAP1 ISZERO ISZERO DUP2 MSTORE PUSH1 0x20 ADD JUMPDEST PUSH1 0x40 MLOAD DUP1 SWAP2 SUB SWAP1 RETURN JUMPDEST PUSH2 0x26E PUSH2 0x24C CALLDATASIZE PUSH1 0x4 PUSH2 0x1B01 JUMP JUMPDEST PUSH1 0x0 SWAP1 DUP2 MSTORE PUSH1 0x6 PUSH1 0x20 MSTORE PUSH1 0x40 SWAP1 KECCAK256 SLOAD PUSH1 0x1 PUSH1 0x40 SHL SWAP1 DIV PUSH1 0x1 PUSH1 0x1 PUSH1 0x40 SHL SUB AND SWAP1 JUMP JUMPDEST PUSH1 0x40 MLOAD PUSH1 0x1 PUSH1 0x1 PUSH1 0x40 SHL SUB SWAP1 SWAP2 AND DUP2 MSTORE PUSH1 0x20 ADD PUSH2 0x235 JUMP JUMPDEST PUSH2 0x299 PUSH2 0x294 CALLDATASIZE PUSH1 0x4 PUSH2 0x1B01 JUMP JUMPDEST PUSH2 0x61C JUMP JUMPDEST STOP JUMPDEST PUSH1 0x5 SLOAD PUSH2 0x2AE SWAP1 PUSH1 0x1 PUSH1 0x1 PUSH1 0xA0 SHL SUB AND DUP2 JUMP JUMPDEST PUSH1 0x40 MLOAD PUSH1 0x1 PUSH1 0x1 PUSH1 0xA0 SHL SUB SWAP1 SWAP2 AND DUP2 MSTORE PUSH1 0x20 ADD PUSH2 0x235 JUMP JUMPDEST PUSH2 0x2E9 PUSH2 0x2D4 CALLDATASIZE PUSH1 0x4 PUSH2 0x1B01 JUMP JUMPDEST PUSH1 0x0 SWAP1 DUP2 MSTORE PUSH1 0x20 DUP2 SWAP1 MSTORE PUSH1 0x40 SWAP1 KECCAK256 PUSH1 0x1 ADD SLOAD SWAP1 JUMP JUMPDEST PUSH1 0x40 MLOAD SWAP1 DUP2 MSTORE PUSH1 0x20 ADD PUSH2 0x235 JUMP JUMPDEST PUSH2 0x299 PUSH2 0x305 CALLDATASIZE PUSH1 0x4 PUSH2 0x1B65 JUMP JUMPDEST PUSH2 0x6B5 JUMP JUMPDEST PUSH2 0x299 PUSH2 0x318 CALLDATASIZE PUSH1 0x4 PUSH2 0x1BBB JUMP JUMPDEST PUSH2 0x7C7 JUMP JUMPDEST PUSH2 0x299 PUSH2 0x32B CALLDATASIZE PUSH1 0x4 PUSH2 0x1BBB JUMP JUMPDEST PUSH2 0x7EC JUMP JUMPDEST PUSH2 0x299 PUSH2 0x33E CALLDATASIZE PUSH1 0x4 PUSH2 0x1BEB JUMP JUMPDEST PUSH2 0x824 JUMP JUMPDEST PUSH2 0x26E PUSH4 0x12CC0300 DUP2 JUMP JUMPDEST PUSH2 0x299 PUSH2 0x9D4 JUMP JUMPDEST PUSH2 0x299 PUSH2 0x364 CALLDATASIZE PUSH1 0x4 PUSH2 0x1C08 JUMP JUMPDEST PUSH2 0x9F7 JUMP JUMPDEST PUSH1 0x40 DUP1 MLOAD DUP1 DUP3 ADD SWAP1 SWAP2 MSTORE PUSH1 0x5 DUP2 MSTORE PUSH5 0x312E302E3 PUSH1 0xDC SHL PUSH1 0x20 DUP3 ADD MSTORE JUMPDEST PUSH1 0x40 MLOAD PUSH2 0x235 SWAP2 SWAP1 PUSH2 0x1C9B JUMP JUMPDEST PUSH1 0x1 SLOAD PUSH1 0xFF AND PUSH2 0x229 JUMP JUMPDEST PUSH2 0x26E PUSH2 0x3AC CALLDATASIZE PUSH1 0x4 PUSH2 0x1B01 JUMP JUMPDEST PUSH1 0x0 SWAP1 DUP2 MSTORE PUSH1 0x6 PUSH1 0x20 MSTORE PUSH1 0x40 SWAP1 KECCAK256 SLOAD PUSH1 0x1 PUSH1 0x1 PUSH1 0x40 SHL SUB AND SWAP1 JUMP JUMPDEST PUSH2 0x229 PUSH2 0x3D5 CALLDATASIZE PUSH1 0x4 PUSH2 0x1B01 JUMP JUMPDEST PUSH1 0x0 SWAP1 DUP2 MSTORE PUSH1 0x6 PUSH1 0x20 MSTORE PUSH1 0x40 SWAP1 KECCAK256 SLOAD PUSH1 0x1 PUSH1 0x1 PUSH1 0x40 SHL SUB AND ISZERO ISZERO SWAP1 JUMP JUMPDEST PUSH2 0x386 PUSH2 0x400 CALLDATASIZE PUSH1 0x4 PUSH2 0x1BEB JUMP JUMPDEST PUSH2 0xB68 JUMP JUMPDEST PUSH2 0x418 PUSH2 0x413 CALLDATASIZE PUSH1 0x4 PUSH2 0x1BEB JUMP JUMPDEST PUSH2 0xBD0 JUMP JUMPDEST PUSH1 0x40 MLOAD PUSH2 0x235 SWAP2 SWAP1 PUSH2 0x1CCE JUMP JUMPDEST PUSH2 0x299 PUSH2 0x433 CALLDATASIZE PUSH1 0x4 PUSH2 0x1D2D JUMP JUMPDEST PUSH2 0xC3C JUMP JUMPDEST PUSH2 0x2E9 PUSH1 0x0 DUP1 MLOAD PUSH1 0x20 PUSH2 0x1FF9 DUP4 CODECOPY DUP2 MLOAD SWAP2 MSTORE DUP2 JUMP JUMPDEST PUSH2 0x229 PUSH2 0x45B CALLDATASIZE PUSH1 0x4 PUSH2 0x1B01 JUMP JUMPDEST PUSH2 0xD84 JUMP JUMPDEST PUSH2 0x299 PUSH2 0xDDD JUMP JUMPDEST PUSH2 0x299 PUSH2 0x476 CALLDATASIZE PUSH1 0x4 PUSH2 0x1BBB JUMP JUMPDEST PUSH2 0xDFD JUMP JUMPDEST PUSH2 0x229 PUSH2 0x489 CALLDATASIZE PUSH1 0x4 PUSH2 0x1BBB JUMP JUMPDEST PUSH2 0x113B JUMP JUMPDEST PUSH2 0x299 PUSH2 0x49C CALLDATASIZE PUSH1 0x4 PUSH2 0x1BEB JUMP JUMPDEST PUSH2 0x1164 JUMP JUMPDEST PUSH2 0x2E9 PUSH1 0x0 DUP2 JUMP JUMPDEST PUSH2 0x229 PUSH2 0x4B7 CALLDATASIZE PUSH1 0x4 PUSH2 0x1B01 JUMP JUMPDEST PUSH1 0x0 SWAP1 DUP2 MSTORE PUSH1 0x6 PUSH1 0x20 MSTORE PUSH1 0x40 SWAP1 KECCAK256 SLOAD PUSH1 0x1 PUSH1 0x80 SHL SWAP1 DIV PUSH1 0xFF AND SWAP1 JUMP JUMPDEST PUSH2 0x299 PUSH2 0x4E1 CALLDATASIZE PUSH1 0x4 PUSH2 0x1D2D JUMP JUMPDEST PUSH2 0x12F1 JUMP JUMPDEST PUSH2 0x299 PUSH2 0x4F4 CALLDATASIZE PUSH1 0x4 PUSH2 0x1BEB JUMP JUMPDEST PUSH2 0x14CF JUMP JUMPDEST PUSH2 0x2E9 PUSH1 0x0 DUP1 MLOAD PUSH1 0x20 PUSH2 0x1FD9 DUP4 CODECOPY DUP2 MLOAD SWAP2 MSTORE DUP2 JUMP JUMPDEST PUSH2 0x299 PUSH2 0x51C CALLDATASIZE PUSH1 0x4 PUSH2 0x1BBB JUMP JUMPDEST PUSH2 0x1562 JUMP JUMPDEST PUSH1 0x4 SLOAD PUSH2 0x2AE SWAP1 PUSH1 0x1 PUSH1 0x1 PUSH1 0xA0 SHL SUB AND DUP2 JUMP JUMPDEST PUSH1 0x3 SLOAD PUSH2 0x2AE SWAP1 PUSH1 0x1 PUSH1 0x1 PUSH1 0xA0 SHL SUB AND DUP2 JUMP JUMPDEST PUSH2 0x5AA PUSH2 0x555 CALLDATASIZE PUSH1 0x4 PUSH2 0x1B01 JUMP JUMPDEST PUSH1 0x0 SWAP1 DUP2 MSTORE PUSH1 0x6 PUSH1 0x20 SWAP1 DUP2 MSTORE PUSH1 0x40 SWAP2 DUP3 SWAP1 KECCAK256 DUP3 MLOAD PUSH1 0x60 DUP2 ADD DUP5 MSTORE SWAP1 SLOAD PUSH1 0x1 PUSH1 0x1 PUSH1 0x40 SHL SUB DUP1 DUP3 AND DUP1 DUP5 MSTORE PUSH1 0x1 PUSH1 0x40 SHL DUP4 DIV SWAP1 SWAP2 AND SWAP4 DUP4 ADD DUP5 SWAP1 MSTORE PUSH1 0x1 PUSH1 0x80 SHL SWAP1 SWAP2 DIV PUSH1 0xFF AND ISZERO ISZERO SWAP2 SWAP1 SWAP4 ADD DUP2 SWAP1 MSTORE SWAP2 SWAP3 SWAP1 SWAP2 SWAP1 JUMP JUMPDEST PUSH1 0x40 DUP1 MLOAD PUSH1 0x1 PUSH1 0x1 PUSH1 0x40 SHL SUB SWAP5 DUP6 AND DUP2 MSTORE SWAP4 SWAP1 SWAP3 AND PUSH1 0x20 DUP5 ADD MSTORE ISZERO ISZERO SWAP1 DUP3 ADD MSTORE PUSH1 0x60 ADD PUSH2 0x235 JUMP JUMPDEST PUSH2 0x299 PUSH2 0x5E0 CALLDATASIZE PUSH1 0x4 PUSH2 0x1D59 JUMP JUMPDEST PUSH2 0x1587 JUMP JUMPDEST PUSH1 0x0 PUSH1 0x1 PUSH1 0x1 PUSH1 0xE0 SHL SUB NOT DUP3 AND PUSH4 0x7965DB0B PUSH1 0xE0 SHL EQ DUP1 PUSH2 0x616 JUMPI POP PUSH4 0x1FFC9A7 PUSH1 0xE0 SHL PUSH1 0x1 PUSH1 0x1 PUSH1 0xE0 SHL SUB NOT DUP4 AND EQ JUMPDEST SWAP3 SWAP2 POP POP JUMP JUMPDEST PUSH1 0x0 DUP1 MLOAD PUSH1 0x20 PUSH2 0x1FF9 DUP4 CODECOPY DUP2 MLOAD SWAP2 MSTORE PUSH2 0x634 DUP2 PUSH2 0x16FD JUMP JUMPDEST PUSH1 0x0 DUP3 DUP2 MSTORE PUSH1 0x6 PUSH1 0x20 MSTORE PUSH1 0x40 SWAP1 KECCAK256 SLOAD PUSH1 0x1 PUSH1 0x1 PUSH1 0x40 SHL SUB AND PUSH2 0x671 JUMPI PUSH1 0x40 MLOAD PUSH3 0x461BCD PUSH1 0xE5 SHL DUP2 MSTORE PUSH1 0x4 ADD PUSH2 0x668 SWAP1 PUSH2 0x1DB5 JUMP JUMPDEST PUSH1 0x40 MLOAD DUP1 SWAP2 SUB SWAP1 REVERT JUMPDEST PUSH1 0x0 DUP3 DUP2 MSTORE PUSH1 0x6 PUSH1 0x20 MSTORE PUSH1 0x40 DUP1 DUP3 KECCAK256 DUP1 SLOAD PUSH1 0xFF PUSH1 0x80 SHL NOT AND SWAP1 SSTORE MLOAD DUP4 SWAP2 PUSH32 0x39F89407A0BE143807BAE44759600C5043B80AA64CF357A8320BFE93587744EC SWAP2 LOG2 POP POP JUMP JUMPDEST PUSH1 0x0 DUP1 MLOAD PUSH1 0x20 PUSH2 0x1FF9 DUP4 CODECOPY DUP2 MLOAD SWAP2 MSTORE PUSH2 0x6CD DUP2 PUSH2 0x16FD JUMP JUMPDEST PUSH1 0x0 JUMPDEST DUP3 DUP2 LT ISZERO PUSH2 0x7C1 JUMPI PUSH2 0x711 DUP5 DUP5 DUP4 DUP2 DUP2 LT PUSH2 0x6ED JUMPI PUSH2 0x6ED PUSH2 0x1DEC JUMP JUMPDEST SWAP1 POP PUSH1 0x20 MUL ADD CALLDATALOAD PUSH1 0x0 SWAP1 DUP2 MSTORE PUSH1 0x6 PUSH1 0x20 MSTORE PUSH1 0x40 SWAP1 KECCAK256 SLOAD PUSH1 0x1 PUSH1 0x1 PUSH1 0x40 SHL SUB AND ISZERO ISZERO SWAP1 JUMP JUMPDEST PUSH2 0x72D JUMPI PUSH1 0x40 MLOAD PUSH3 0x461BCD PUSH1 0xE5 SHL DUP2 MSTORE PUSH1 0x4 ADD PUSH2 0x668 SWAP1 PUSH2 0x1DB5 JUMP JUMPDEST PUSH1 0x0 PUSH1 0x6 PUSH1 0x0 DUP7 DUP7 DUP6 DUP2 DUP2 LT PUSH2 0x745 JUMPI PUSH2 0x745 PUSH2 0x1DEC JUMP JUMPDEST SWAP1 POP PUSH1 0x20 MUL ADD CALLDATALOAD DUP2 MSTORE PUSH1 0x20 ADD SWAP1 DUP2 MSTORE PUSH1 0x20 ADD PUSH1 0x0 KECCAK256 PUSH1 0x0 ADD PUSH1 0x10 PUSH2 0x100 EXP DUP2 SLOAD DUP2 PUSH1 0xFF MUL NOT AND SWAP1 DUP4 ISZERO ISZERO MUL OR SWAP1 SSTORE POP DUP4 DUP4 DUP3 DUP2 DUP2 LT PUSH2 0x786 JUMPI PUSH2 0x786 PUSH2 0x1DEC JUMP JUMPDEST SWAP1 POP PUSH1 0x20 MUL ADD CALLDATALOAD PUSH32 0x39F89407A0BE143807BAE44759600C5043B80AA64CF357A8320BFE93587744EC PUSH1 0x40 MLOAD PUSH1 0x40 MLOAD DUP1 SWAP2 SUB SWAP1 LOG2 PUSH1 0x1 ADD PUSH2 0x6D0 JUMP JUMPDEST POP POP POP POP JUMP JUMPDEST PUSH1 0x0 DUP3 DUP2 MSTORE PUSH1 0x20 DUP2 SWAP1 MSTORE PUSH1 0x40 SWAP1 KECCAK256 PUSH1 0x1 ADD SLOAD PUSH2 0x7E2 DUP2 PUSH2 0x16FD JUMP JUMPDEST PUSH2 0x7C1 DUP4 DUP4 PUSH2 0x1707 JUMP JUMPDEST PUSH1 0x1 PUSH1 0x1 PUSH1 0xA0 SHL SUB DUP2 AND CALLER EQ PUSH2 0x815 JUMPI PUSH1 0x40 MLOAD PUSH4 0x334BD919 PUSH1 0xE1 SHL DUP2 MSTORE PUSH1 0x4 ADD PUSH1 0x40 MLOAD DUP1 SWAP2 SUB SWAP1 REVERT JUMPDEST PUSH2 0x81F DUP3 DUP3 PUSH2 0x1799 JUMP JUMPDEST POP POP POP JUMP JUMPDEST PUSH1 0x0 DUP1 MLOAD PUSH1 0x20 PUSH2 0x1FF9 DUP4 CODECOPY DUP2 MLOAD SWAP2 MSTORE PUSH2 0x83C DUP2 PUSH2 0x16FD JUMP JUMPDEST PUSH2 0x844 PUSH2 0x1804 JUMP JUMPDEST PUSH2 0x84C PUSH2 0x182A JUMP JUMPDEST PUSH1 0x1 PUSH1 0x1 PUSH1 0xA0 SHL SUB DUP3 AND PUSH2 0x894 JUMPI PUSH1 0x40 MLOAD PUSH3 0x461BCD PUSH1 0xE5 SHL DUP2 MSTORE PUSH1 0x20 PUSH1 0x4 DUP3 ADD MSTORE PUSH1 0xF PUSH1 0x24 DUP3 ADD MSTORE PUSH15 0x496E76616C69642061646472657373 PUSH1 0x88 SHL PUSH1 0x44 DUP3 ADD MSTORE PUSH1 0x64 ADD PUSH2 0x668 JUMP JUMPDEST PUSH1 0x40 MLOAD PUSH4 0x995A343B PUSH1 0xE0 SHL DUP2 MSTORE PUSH1 0x1 PUSH1 0x1 PUSH1 0xA0 SHL SUB DUP4 AND PUSH1 0x4 DUP3 ADD MSTORE ADDRESS SWAP1 PUSH4 0x995A343B SWAP1 PUSH1 0x24 ADD PUSH1 0x0 PUSH1 0x40 MLOAD DUP1 DUP4 SUB DUP2 DUP7 DUP1 EXTCODESIZE ISZERO DUP1 ISZERO PUSH2 0x8D3 JUMPI PUSH1 0x0 DUP1 REVERT JUMPDEST POP GAS STATICCALL ISZERO DUP1 ISZERO PUSH2 0x8E7 JUMPI RETURNDATASIZE PUSH1 0x0 DUP1 RETURNDATACOPY RETURNDATASIZE PUSH1 0x0 REVERT JUMPDEST POP POP PUSH1 0x3 SLOAD PUSH1 0x40 MLOAD PUSH1 0x1 PUSH1 0x1 PUSH1 0xA0 SHL SUB DUP7 DUP2 AND PUSH1 0x24 DUP4 ADD MSTORE PUSH1 0x0 SWAP5 POP SWAP1 SWAP2 AND SWAP2 POP PUSH1 0x44 ADD JUMPDEST PUSH1 0x40 DUP1 MLOAD PUSH1 0x1F NOT DUP2 DUP5 SUB ADD DUP2 MSTORE SWAP2 DUP2 MSTORE PUSH1 0x20 DUP3 ADD DUP1 MLOAD PUSH1 0x1 PUSH1 0x1 PUSH1 0xE0 SHL SUB AND PUSH4 0x1B2CE7F3 PUSH1 0xE1 SHL OR SWAP1 MSTORE MLOAD PUSH2 0x941 SWAP2 SWAP1 PUSH2 0x1E02 JUMP JUMPDEST PUSH1 0x0 PUSH1 0x40 MLOAD DUP1 DUP4 SUB DUP2 PUSH1 0x0 DUP7 GAS CALL SWAP2 POP POP RETURNDATASIZE DUP1 PUSH1 0x0 DUP2 EQ PUSH2 0x97E JUMPI PUSH1 0x40 MLOAD SWAP2 POP PUSH1 0x1F NOT PUSH1 0x3F RETURNDATASIZE ADD AND DUP3 ADD PUSH1 0x40 MSTORE RETURNDATASIZE DUP3 MSTORE RETURNDATASIZE PUSH1 0x0 PUSH1 0x20 DUP5 ADD RETURNDATACOPY PUSH2 0x983 JUMP JUMPDEST PUSH1 0x60 SWAP2 POP JUMPDEST POP POP SWAP1 POP DUP1 PUSH2 0x9C5 JUMPI PUSH1 0x40 MLOAD PUSH3 0x461BCD PUSH1 0xE5 SHL DUP2 MSTORE PUSH1 0x20 PUSH1 0x4 DUP3 ADD MSTORE PUSH1 0xE PUSH1 0x24 DUP3 ADD MSTORE PUSH14 0x155C19DC9859194819985A5B1959 PUSH1 0x92 SHL PUSH1 0x44 DUP3 ADD MSTORE PUSH1 0x64 ADD PUSH2 0x668 JUMP JUMPDEST POP PUSH2 0x9D0 PUSH1 0x1 PUSH1 0x2 SSTORE JUMP JUMPDEST POP POP JUMP JUMPDEST PUSH1 0x0 DUP1 MLOAD PUSH1 0x20 PUSH2 0x1FF9 DUP4 CODECOPY DUP2 MLOAD SWAP2 MSTORE PUSH2 0x9EC DUP2 PUSH2 0x16FD JUMP JUMPDEST PUSH2 0x9F4 PUSH2 0x1852 JUMP JUMPDEST POP JUMP JUMPDEST PUSH1 0x0 DUP1 MLOAD PUSH1 0x20 PUSH2 0x1FD9 DUP4 CODECOPY DUP2 MLOAD SWAP2 MSTORE PUSH2 0xA0F DUP2 PUSH2 0x16FD JUMP JUMPDEST PUSH2 0xA17 PUSH2 0x1804 JUMP JUMPDEST PUSH2 0xA1F PUSH2 0x182A JUMP JUMPDEST DUP4 DUP3 EQ PUSH2 0xA62 JUMPI PUSH1 0x40 MLOAD PUSH3 0x461BCD PUSH1 0xE5 SHL DUP2 MSTORE PUSH1 0x20 PUSH1 0x4 DUP3 ADD MSTORE PUSH1 0x11 PUSH1 0x24 DUP3 ADD MSTORE PUSH17 0x4D69736D61746368656420617272617973 PUSH1 0x78 SHL PUSH1 0x44 DUP3 ADD MSTORE PUSH1 0x64 ADD PUSH2 0x668 JUMP JUMPDEST PUSH1 0x0 JUMPDEST DUP5 DUP2 LT ISZERO PUSH2 0xB56 JUMPI PUSH1 0x0 DUP7 DUP7 DUP4 DUP2 DUP2 LT PUSH2 0xA81 JUMPI PUSH2 0xA81 PUSH2 0x1DEC JUMP JUMPDEST SWAP1 POP PUSH1 0x20 MUL ADD CALLDATALOAD SWAP1 POP PUSH1 0x0 DUP6 DUP6 DUP5 DUP2 DUP2 LT PUSH2 0xA9E JUMPI PUSH2 0xA9E PUSH2 0x1DEC JUMP JUMPDEST SWAP1 POP PUSH1 0x20 MUL ADD PUSH1 0x20 DUP2 ADD SWAP1 PUSH2 0xAB3 SWAP2 SWAP1 PUSH2 0x1E1E JUMP JUMPDEST PUSH1 0x0 DUP4 DUP2 MSTORE PUSH1 0x6 PUSH1 0x20 MSTORE PUSH1 0x40 SWAP1 KECCAK256 SLOAD PUSH2 0xADC SWAP2 SWAP1 PUSH1 0x1 PUSH1 0x40 SHL SWAP1 DIV PUSH1 0x1 PUSH1 0x1 PUSH1 0x40 SHL SUB AND PUSH2 0x1E4F JUMP JUMPDEST PUSH1 0x0 DUP4 DUP2 MSTORE PUSH1 0x6 PUSH1 0x20 SWAP1 DUP2 MSTORE PUSH1 0x40 SWAP2 DUP3 SWAP1 KECCAK256 DUP1 SLOAD PUSH8 0xFFFFFFFFFFFFFFFF PUSH1 0x40 SHL NOT AND PUSH1 0x1 PUSH1 0x40 SHL PUSH1 0x1 PUSH1 0x1 PUSH1 0x40 SHL SUB DUP7 AND SWAP1 DUP2 MUL SWAP2 SWAP1 SWAP2 OR SWAP1 SWAP2 SSTORE SWAP2 MLOAD SWAP2 DUP3 MSTORE SWAP2 SWAP3 POP DUP4 SWAP2 PUSH32 0xA96B3A9B8C2C2E35FAE1EF064D429B87564EC1ED72BF0F3409A4D80B9989BA8 SWAP2 ADD PUSH1 0x40 MLOAD DUP1 SWAP2 SUB SWAP1 LOG2 POP POP PUSH1 0x1 ADD PUSH2 0xA65 JUMP JUMPDEST POP PUSH2 0xB61 PUSH1 0x1 PUSH1 0x2 SSTORE JUMP JUMPDEST POP POP POP POP POP JUMP JUMPDEST PUSH1 0x60 DUP2 PUSH1 0x1 PUSH1 0x1 PUSH1 0xA0 SHL SUB AND PUSH4 0x54FD4D50 PUSH1 0x40 MLOAD DUP2 PUSH4 0xFFFFFFFF AND PUSH1 0xE0 SHL DUP2 MSTORE PUSH1 0x4 ADD PUSH1 0x0 PUSH1 0x40 MLOAD DUP1 DUP4 SUB DUP2 DUP7 GAS STATICCALL ISZERO DUP1 ISZERO PUSH2 0xBA8 JUMPI RETURNDATASIZE PUSH1 0x0 DUP1 RETURNDATACOPY RETURNDATASIZE PUSH1 0x0 REVERT JUMPDEST POP POP POP POP PUSH1 0x40 MLOAD RETURNDATASIZE PUSH1 0x0 DUP3 RETURNDATACOPY PUSH1 0x1F RETURNDATASIZE SWAP1 DUP2 ADD PUSH1 0x1F NOT AND DUP3 ADD PUSH1 0x40 MSTORE PUSH2 0x616 SWAP2 SWAP1 DUP2 ADD SWAP1 PUSH2 0x1E84 JUMP JUMPDEST PUSH1 0x1 PUSH1 0x1 PUSH1 0xA0 SHL SUB DUP2 AND PUSH1 0x0 SWAP1 DUP2 MSTORE PUSH1 0x7 PUSH1 0x20 SWAP1 DUP2 MSTORE PUSH1 0x40 SWAP2 DUP3 SWAP1 KECCAK256 DUP1 SLOAD DUP4 MLOAD DUP2 DUP5 MUL DUP2 ADD DUP5 ADD SWAP1 SWAP5 MSTORE DUP1 DUP5 MSTORE PUSH1 0x60 SWAP4 SWAP3 DUP4 ADD DUP3 DUP3 DUP1 ISZERO PUSH2 0xC30 JUMPI PUSH1 0x20 MUL DUP3 ADD SWAP2 SWAP1 PUSH1 0x0 MSTORE PUSH1 0x20 PUSH1 0x0 KECCAK256 SWAP1 JUMPDEST DUP2 SLOAD DUP2 MSTORE PUSH1 0x20 ADD SWAP1 PUSH1 0x1 ADD SWAP1 DUP1 DUP4 GT PUSH2 0xC1C JUMPI JUMPDEST POP POP POP POP POP SWAP1 POP SWAP2 SWAP1 POP JUMP JUMPDEST PUSH1 0x0 DUP1 MLOAD PUSH1 0x20 PUSH2 0x1FD9 DUP4 CODECOPY DUP2 MLOAD SWAP2 MSTORE PUSH2 0xC54 DUP2 PUSH2 0x16FD JUMP JUMPDEST PUSH1 0x0 DUP4 DUP2 MSTORE PUSH1 0x6 PUSH1 0x20 MSTORE PUSH1 0x40 SWAP1 KECCAK256 SLOAD PUSH1 0x1 PUSH1 0x1 PUSH1 0x40 SHL SUB AND PUSH2 0xC88 JUMPI PUSH1 0x40 MLOAD PUSH3 0x461BCD PUSH1 0xE5 SHL DUP2 MSTORE PUSH1 0x4 ADD PUSH2 0x668 SWAP1 PUSH2 0x1DB5 JUMP JUMPDEST PUSH1 0x0 DUP4 DUP2 MSTORE PUSH1 0x6 PUSH1 0x20 MSTORE PUSH1 0x40 DUP2 KECCAK256 SLOAD PUSH2 0xCB2 SWAP1 DUP5 SWAP1 PUSH1 0x1 PUSH1 0x40 SHL SWAP1 DIV PUSH1 0x1 PUSH1 0x1 PUSH1 0x40 SHL SUB AND PUSH2 0x1E4F JUMP JUMPDEST SWAP1 POP PUSH4 0x12CC0300 PUSH1 0x1 PUSH1 0x1 PUSH1 0x40 SHL SUB DUP3 AND GT ISZERO PUSH2 0xD11 JUMPI PUSH1 0x40 MLOAD PUSH3 0x461BCD PUSH1 0xE5 SHL DUP2 MSTORE PUSH1 0x20 PUSH1 0x4 DUP3 ADD MSTORE PUSH1 0x1E PUSH1 0x24 DUP3 ADD MSTORE PUSH32 0x4475726174696F6E2065786365656473206D6178696D756D206C696D69740000 PUSH1 0x44 DUP3 ADD MSTORE PUSH1 0x64 ADD PUSH2 0x668 JUMP JUMPDEST PUSH1 0x0 DUP5 DUP2 MSTORE PUSH1 0x6 PUSH1 0x20 SWAP1 DUP2 MSTORE PUSH1 0x40 SWAP2 DUP3 SWAP1 KECCAK256 DUP1 SLOAD PUSH8 0xFFFFFFFFFFFFFFFF PUSH1 0x40 SHL NOT AND PUSH1 0x1 PUSH1 0x40 SHL PUSH1 0x1 PUSH1 0x1 PUSH1 0x40 SHL SUB DUP7 AND SWAP1 DUP2 MUL SWAP2 SWAP1 SWAP2 OR SWAP1 SWAP2 SSTORE SWAP2 MLOAD SWAP2 DUP3 MSTORE DUP6 SWAP2 PUSH32 0xA96B3A9B8C2C2E35FAE1EF064D429B87564EC1ED72BF0F3409A4D80B9989BA8 SWAP2 ADD PUSH1 0x40 MLOAD DUP1 SWAP2 SUB SWAP1 LOG2 POP POP POP POP JUMP JUMPDEST PUSH1 0x0 DUP2 DUP2 MSTORE PUSH1 0x6 PUSH1 0x20 MSTORE PUSH1 0x40 DUP2 KECCAK256 SLOAD PUSH1 0x1 PUSH1 0x1 PUSH1 0x40 SHL SUB AND PUSH2 0xDB8 JUMPI PUSH1 0x40 MLOAD PUSH3 0x461BCD PUSH1 0xE5 SHL DUP2 MSTORE PUSH1 0x4 ADD PUSH2 0x668 SWAP1 PUSH2 0x1DB5 JUMP JUMPDEST POP PUSH1 0x0 SWAP1 DUP2 MSTORE PUSH1 0x6 PUSH1 0x20 MSTORE PUSH1 0x40 SWAP1 KECCAK256 SLOAD PUSH1 0x1 PUSH1 0x40 SHL SWAP1 DIV PUSH1 0x1 PUSH1 0x1 PUSH1 0x40 SHL SUB AND TIMESTAMP GT SWAP1 JUMP JUMPDEST PUSH1 0x0 DUP1 MLOAD PUSH1 0x20 PUSH2 0x1FF9 DUP4 CODECOPY DUP2 MLOAD SWAP2 MSTORE PUSH2 0xDF5 DUP2 PUSH2 0x16FD JUMP JUMPDEST PUSH2 0x9F4 PUSH2 0x18A4 JUMP JUMPDEST PUSH1 0x4 DUP1 SLOAD PUSH1 0x40 MLOAD PUSH4 0x31A9108F PUSH1 0xE1 SHL DUP2 MSTORE SWAP2 DUP3 ADD DUP5 SWAP1 MSTORE CALLER SWAP2 PUSH1 0x1 PUSH1 0x1 PUSH1 0xA0 SHL SUB SWAP1 SWAP2 AND SWAP1 PUSH4 0x6352211E SWAP1 PUSH1 0x24 ADD PUSH1 0x20 PUSH1 0x40 MLOAD DUP1 DUP4 SUB DUP2 DUP7 GAS STATICCALL ISZERO DUP1 ISZERO PUSH2 0xE48 JUMPI RETURNDATASIZE PUSH1 0x0 DUP1 RETURNDATACOPY RETURNDATASIZE PUSH1 0x0 REVERT JUMPDEST POP POP POP POP PUSH1 0x40 MLOAD RETURNDATASIZE PUSH1 0x1F NOT PUSH1 0x1F DUP3 ADD AND DUP3 ADD DUP1 PUSH1 0x40 MSTORE POP DUP2 ADD SWAP1 PUSH2 0xE6C SWAP2 SWAP1 PUSH2 0x1F36 JUMP JUMPDEST PUSH1 0x1 PUSH1 0x1 PUSH1 0xA0 SHL SUB AND EQ PUSH2 0xECD JUMPI PUSH1 0x40 MLOAD PUSH3 0x461BCD PUSH1 0xE5 SHL DUP2 MSTORE PUSH1 0x20 PUSH1 0x4 DUP3 ADD MSTORE PUSH1 0x22 PUSH1 0x24 DUP3 ADD MSTORE PUSH32 0x43616C6C6572206973206E6F7420746865206F776E6572206F6620746865204E PUSH1 0x44 DUP3 ADD MSTORE PUSH2 0x1195 PUSH1 0xF2 SHL PUSH1 0x64 DUP3 ADD MSTORE PUSH1 0x84 ADD PUSH2 0x668 JUMP JUMPDEST PUSH1 0x0 DUP3 DUP2 MSTORE PUSH1 0x6 PUSH1 0x20 MSTORE PUSH1 0x40 SWAP1 KECCAK256 SLOAD PUSH1 0x1 PUSH1 0x1 PUSH1 0x40 SHL SUB AND PUSH2 0xF01 JUMPI PUSH1 0x40 MLOAD PUSH3 0x461BCD PUSH1 0xE5 SHL DUP2 MSTORE PUSH1 0x4 ADD PUSH2 0x668 SWAP1 PUSH2 0x1DB5 JUMP JUMPDEST PUSH1 0x4 DUP1 SLOAD PUSH1 0x40 MLOAD PUSH4 0x31A9108F PUSH1 0xE1 SHL DUP2 MSTORE SWAP2 DUP3 ADD DUP5 SWAP1 MSTORE PUSH1 0x0 SWAP2 PUSH1 0x1 PUSH1 0x1 PUSH1 0xA0 SHL SUB SWAP1 SWAP2 AND SWAP1 PUSH4 0x6352211E SWAP1 PUSH1 0x24 ADD PUSH1 0x20 PUSH1 0x40 MLOAD DUP1 DUP4 SUB DUP2 DUP7 GAS STATICCALL ISZERO DUP1 ISZERO PUSH2 0xF4D JUMPI RETURNDATASIZE PUSH1 0x0 DUP1 RETURNDATACOPY RETURNDATASIZE PUSH1 0x0 REVERT JUMPDEST POP POP POP POP PUSH1 0x40 MLOAD RETURNDATASIZE PUSH1 0x1F NOT PUSH1 0x1F DUP3 ADD AND DUP3 ADD DUP1 PUSH1 0x40 MSTORE POP DUP2 ADD SWAP1 PUSH2 0xF71 SWAP2 SWAP1 PUSH2 0x1F36 JUMP JUMPDEST PUSH1 0x4 DUP1 SLOAD PUSH1 0x40 MLOAD PUSH4 0x21421707 PUSH1 0xE1 SHL DUP2 MSTORE PUSH1 0x1 PUSH1 0x1 PUSH1 0xA0 SHL SUB DUP1 DUP6 AND SWAP4 DUP3 ADD SWAP4 SWAP1 SWAP4 MSTORE DUP6 DUP4 AND PUSH1 0x24 DUP3 ADD MSTORE PUSH1 0x44 DUP2 ADD DUP8 SWAP1 MSTORE SWAP3 SWAP4 POP AND SWAP1 PUSH4 0x42842E0E SWAP1 PUSH1 0x64 ADD PUSH1 0x0 PUSH1 0x40 MLOAD DUP1 DUP4 SUB DUP2 PUSH1 0x0 DUP8 DUP1 EXTCODESIZE ISZERO DUP1 ISZERO PUSH2 0xFCB JUMPI PUSH1 0x0 DUP1 REVERT JUMPDEST POP GAS CALL ISZERO DUP1 ISZERO PUSH2 0xFDF JUMPI RETURNDATASIZE PUSH1 0x0 DUP1 RETURNDATACOPY RETURNDATASIZE PUSH1 0x0 REVERT JUMPDEST POP POP POP POP PUSH1 0x0 JUMPDEST CALLER PUSH1 0x0 SWAP1 DUP2 MSTORE PUSH1 0x7 PUSH1 0x20 MSTORE PUSH1 0x40 SWAP1 KECCAK256 SLOAD DUP2 LT ISZERO PUSH2 0x10DA JUMPI CALLER PUSH1 0x0 SWAP1 DUP2 MSTORE PUSH1 0x7 PUSH1 0x20 MSTORE PUSH1 0x40 SWAP1 KECCAK256 DUP1 SLOAD DUP6 SWAP2 SWAP1 DUP4 SWAP1 DUP2 LT PUSH2 0x1021 JUMPI PUSH2 0x1021 PUSH2 0x1DEC JUMP JUMPDEST SWAP1 PUSH1 0x0 MSTORE PUSH1 0x20 PUSH1 0x0 KECCAK256 ADD SLOAD SUB PUSH2 0x10D2 JUMPI CALLER PUSH1 0x0 SWAP1 DUP2 MSTORE PUSH1 0x7 PUSH1 0x20 MSTORE PUSH1 0x40 SWAP1 KECCAK256 DUP1 SLOAD PUSH2 0x104E SWAP1 PUSH1 0x1 SWAP1 PUSH2 0x1F53 JUMP JUMPDEST DUP2 SLOAD DUP2 LT PUSH2 0x105E JUMPI PUSH2 0x105E PUSH2 0x1DEC JUMP JUMPDEST PUSH1 0x0 SWAP2 DUP3 MSTORE PUSH1 0x20 DUP1 DUP4 KECCAK256 SWAP1 SWAP2 ADD SLOAD CALLER DUP4 MSTORE PUSH1 0x7 SWAP1 SWAP2 MSTORE PUSH1 0x40 SWAP1 SWAP2 KECCAK256 DUP1 SLOAD DUP4 SWAP1 DUP2 LT PUSH2 0x108B JUMPI PUSH2 0x108B PUSH2 0x1DEC JUMP JUMPDEST PUSH1 0x0 SWAP2 DUP3 MSTORE PUSH1 0x20 DUP1 DUP4 KECCAK256 SWAP1 SWAP2 ADD SWAP3 SWAP1 SWAP3 SSTORE CALLER DUP2 MSTORE PUSH1 0x7 SWAP1 SWAP2 MSTORE PUSH1 0x40 SWAP1 KECCAK256 DUP1 SLOAD DUP1 PUSH2 0x10B7 JUMPI PUSH2 0x10B7 PUSH2 0x1F66 JUMP JUMPDEST PUSH1 0x1 SWAP1 SUB DUP2 DUP2 SWAP1 PUSH1 0x0 MSTORE PUSH1 0x20 PUSH1 0x0 KECCAK256 ADD PUSH1 0x0 SWAP1 SSTORE SWAP1 SSTORE PUSH2 0x10DA JUMP JUMPDEST PUSH1 0x1 ADD PUSH2 0xFE6 JUMP JUMPDEST POP PUSH1 0x1 PUSH1 0x1 PUSH1 0xA0 SHL SUB DUP1 DUP4 AND PUSH1 0x0 DUP2 DUP2 MSTORE PUSH1 0x7 PUSH1 0x20 SWAP1 DUP2 MSTORE PUSH1 0x40 DUP1 DUP4 KECCAK256 DUP1 SLOAD PUSH1 0x1 DUP2 ADD DUP3 SSTORE SWAP1 DUP5 MSTORE SWAP2 DUP4 KECCAK256 SWAP1 SWAP2 ADD DUP8 SWAP1 SSTORE MLOAD SWAP2 SWAP3 DUP5 AND SWAP2 DUP7 SWAP2 PUSH32 0x97558FC5104F86FAB615951680B07855CAE4F5BF4F205D054607E8BED9B2E79 SWAP2 LOG4 POP POP POP JUMP JUMPDEST PUSH1 0x0 SWAP2 DUP3 MSTORE PUSH1 0x20 DUP3 DUP2 MSTORE PUSH1 0x40 DUP1 DUP5 KECCAK256 PUSH1 0x1 PUSH1 0x1 PUSH1 0xA0 SHL SUB SWAP4 SWAP1 SWAP4 AND DUP5 MSTORE SWAP2 SWAP1 MSTORE SWAP1 KECCAK256 SLOAD PUSH1 0xFF AND SWAP1 JUMP JUMPDEST PUSH1 0x0 PUSH2 0x116F DUP2 PUSH2 0x16FD JUMP JUMPDEST PUSH1 0x1 PUSH1 0x1 PUSH1 0xA0 SHL SUB DUP3 AND PUSH2 0x11C5 JUMPI PUSH1 0x40 MLOAD PUSH3 0x461BCD PUSH1 0xE5 SHL DUP2 MSTORE PUSH1 0x20 PUSH1 0x4 DUP3 ADD MSTORE PUSH1 0x18 PUSH1 0x24 DUP3 ADD MSTORE PUSH32 0x496E76616C696420636F6E747261637420616464726573730000000000000000 PUSH1 0x44 DUP3 ADD MSTORE PUSH1 0x64 ADD PUSH2 0x668 JUMP JUMPDEST PUSH1 0x0 DUP3 PUSH1 0x1 PUSH1 0x1 PUSH1 0xA0 SHL SUB AND PUSH4 0x54FD4D50 PUSH1 0x40 MLOAD DUP2 PUSH4 0xFFFFFFFF AND PUSH1 0xE0 SHL DUP2 MSTORE PUSH1 0x4 ADD PUSH1 0x0 PUSH1 0x40 MLOAD DUP1 DUP4 SUB DUP2 DUP7 GAS STATICCALL ISZERO DUP1 ISZERO PUSH2 0x1205 JUMPI RETURNDATASIZE PUSH1 0x0 DUP1 RETURNDATACOPY RETURNDATASIZE PUSH1 0x0 REVERT JUMPDEST POP POP POP POP PUSH1 0x40 MLOAD RETURNDATASIZE PUSH1 0x0 DUP3 RETURNDATACOPY PUSH1 0x1F RETURNDATASIZE SWAP1 DUP2 ADD PUSH1 0x1F NOT AND DUP3 ADD PUSH1 0x40 MSTORE PUSH2 0x122D SWAP2 SWAP1 DUP2 ADD SWAP1 PUSH2 0x1E84 JUMP JUMPDEST PUSH1 0x40 DUP1 MLOAD DUP1 DUP3 ADD DUP3 MSTORE PUSH1 0x5 DUP1 DUP3 MSTORE PUSH5 0x312E302E31 PUSH1 0xD8 SHL PUSH1 0x20 DUP1 DUP5 ADD SWAP2 SWAP1 SWAP2 MSTORE DUP4 MLOAD DUP1 DUP6 ADD SWAP1 SWAP5 MSTORE SWAP1 DUP4 MSTORE PUSH5 0x322E302E3 PUSH1 0xDC SHL SWAP1 DUP4 ADD MSTORE SWAP2 SWAP3 POP PUSH1 0x0 PUSH2 0x1274 DUP5 DUP5 PUSH2 0x18DF JUMP JUMPDEST SLT ISZERO DUP1 ISZERO PUSH2 0x128C JUMPI POP PUSH1 0x0 PUSH2 0x1289 DUP5 DUP4 PUSH2 0x18DF JUMP JUMPDEST SGT ISZERO JUMPDEST PUSH2 0xB61 JUMPI PUSH1 0x40 MLOAD PUSH3 0x461BCD PUSH1 0xE5 SHL DUP2 MSTORE PUSH1 0x20 PUSH1 0x4 DUP3 ADD MSTORE PUSH1 0x30 PUSH1 0x24 DUP3 ADD MSTORE PUSH32 0x436F6E74726163742076657273696F6E206D757374206265206265747765656E PUSH1 0x44 DUP3 ADD MSTORE PUSH16 0x20312E302E3120616E6420322E302E3 PUSH1 0x84 SHL PUSH1 0x64 DUP3 ADD MSTORE PUSH1 0x84 ADD PUSH2 0x668 JUMP JUMPDEST PUSH1 0x0 DUP1 MLOAD PUSH1 0x20 PUSH2 0x1FD9 DUP4 CODECOPY DUP2 MLOAD SWAP2 MSTORE PUSH2 0x1309 DUP2 PUSH2 0x16FD JUMP JUMPDEST PUSH2 0x1311 PUSH2 0x1804 JUMP JUMPDEST PUSH1 0x0 DUP4 DUP2 MSTORE PUSH1 0x6 PUSH1 0x20 MSTORE PUSH1 0x40 SWAP1 KECCAK256 SLOAD PUSH1 0x1 PUSH1 0x1 PUSH1 0x40 SHL SUB AND ISZERO PUSH2 0x1376 JUMPI PUSH1 0x40 MLOAD PUSH3 0x461BCD PUSH1 0xE5 SHL DUP2 MSTORE PUSH1 0x20 PUSH1 0x4 DUP3 ADD MSTORE PUSH1 0x17 PUSH1 0x24 DUP3 ADD MSTORE PUSH32 0x57617272616E747920616C726561647920697373756564000000000000000000 PUSH1 0x44 DUP3 ADD MSTORE PUSH1 0x64 ADD PUSH2 0x668 JUMP JUMPDEST PUSH4 0x12CC0300 PUSH1 0x1 PUSH1 0x1 PUSH1 0x40 SHL SUB DUP4 AND GT ISZERO PUSH2 0x13D3 JUMPI PUSH1 0x40 MLOAD PUSH3 0x461BCD PUSH1 0xE5 SHL DUP2 MSTORE PUSH1 0x20 PUSH1 0x4 DUP3 ADD MSTORE PUSH1 0x1E PUSH1 0x24 DUP3 ADD MSTORE PUSH32 0x4475726174696F6E2065786365656473206D6178696D756D206C696D69740000 PUSH1 0x44 DUP3 ADD MSTORE PUSH1 0x64 ADD PUSH2 0x668 JUMP JUMPDEST TIMESTAMP PUSH1 0x0 PUSH2 0x13E0 DUP5 DUP4 PUSH2 0x1E4F JUMP JUMPDEST PUSH1 0x40 DUP1 MLOAD PUSH1 0x60 DUP2 ADD DUP3 MSTORE PUSH1 0x1 PUSH1 0x1 PUSH1 0x40 SHL SUB DUP1 DUP7 AND DUP3 MSTORE DUP1 DUP5 AND PUSH1 0x20 DUP1 DUP5 ADD SWAP2 DUP3 MSTORE PUSH1 0x1 DUP5 DUP7 ADD DUP2 DUP2 MSTORE PUSH1 0x0 DUP14 DUP2 MSTORE PUSH1 0x6 DUP5 MSTORE DUP8 DUP2 KECCAK256 SWAP7 MLOAD DUP8 SLOAD SWAP6 MLOAD SWAP3 MLOAD ISZERO ISZERO PUSH1 0x1 PUSH1 0x80 SHL MUL PUSH1 0xFF PUSH1 0x80 SHL NOT SWAP4 DUP9 AND PUSH1 0x1 PUSH1 0x40 SHL MUL PUSH16 0xFFFFFFFFFFFFFFFFFFFFFFFFFFFFFFFF NOT SWAP1 SWAP8 AND SWAP2 SWAP1 SWAP8 AND OR SWAP5 SWAP1 SWAP5 OR AND SWAP4 SWAP1 SWAP4 OR SWAP1 SWAP4 SSTORE CALLER DUP2 MSTORE PUSH1 0x7 DUP4 MSTORE DUP4 DUP2 KECCAK256 DUP1 SLOAD SWAP3 DUP4 ADD DUP2 SSTORE DUP2 MSTORE SWAP2 SWAP1 SWAP2 KECCAK256 ADD DUP8 SWAP1 SSTORE MLOAD SWAP1 SWAP2 POP DUP6 SWAP1 PUSH32 0xD5398B7DECB3E72ED8B4261F6D8E4193D7CE854C23844B1B537EC542622BF407 SWAP1 PUSH2 0x14C0 SWAP1 DUP6 SWAP1 DUP6 SWAP1 PUSH1 0x1 PUSH1 0x1 PUSH1 0x40 SHL SUB SWAP3 DUP4 AND DUP2 MSTORE SWAP2 AND PUSH1 0x20 DUP3 ADD MSTORE PUSH1 0x40 ADD SWAP1 JUMP JUMPDEST PUSH1 0x40 MLOAD DUP1 SWAP2 SUB SWAP1 LOG2 POP POP POP POP POP JUMP JUMPDEST PUSH1 0x0 DUP1 MLOAD PUSH1 0x20 PUSH2 0x1FF9 DUP4 CODECOPY DUP2 MLOAD SWAP2 MSTORE PUSH2 0x14E7 DUP2 PUSH2 0x16FD JUMP JUMPDEST PUSH2 0x14EF PUSH2 0x1804 JUMP JUMPDEST PUSH2 0x14F7 PUSH2 0x182A JUMP JUMPDEST PUSH1 0x1 PUSH1 0x1 PUSH1 0xA0 SHL SUB DUP3 AND PUSH2 0x153F JUMPI PUSH1 0x40 MLOAD PUSH3 0x461BCD PUSH1 0xE5 SHL DUP2 MSTORE PUSH1 0x20 PUSH1 0x4 DUP3 ADD MSTORE PUSH1 0xF PUSH1 0x24 DUP3 ADD MSTORE PUSH15 0x496E76616C69642061646472657373 PUSH1 0x88 SHL PUSH1 0x44 DUP3 ADD MSTORE PUSH1 0x64 ADD PUSH2 0x668 JUMP JUMPDEST PUSH1 0x3 SLOAD PUSH1 0x40 MLOAD PUSH1 0x1 PUSH1 0x1 PUSH1 0xA0 SHL SUB DUP5 DUP2 AND PUSH1 0x24 DUP4 ADD MSTORE PUSH1 0x0 SWAP3 AND SWAP1 PUSH1 0x44 ADD PUSH2 0x90C JUMP JUMPDEST PUSH1 0x0 DUP3 DUP2 MSTORE PUSH1 0x20 DUP2 SWAP1 MSTORE PUSH1 0x40 SWAP1 KECCAK256 PUSH1 0x1 ADD SLOAD PUSH2 0x157D DUP2 PUSH2 0x16FD JUMP JUMPDEST PUSH2 0x7C1 DUP4 DUP4 PUSH2 0x1799 JUMP JUMPDEST PUSH32 0xF0C57E16840DF040F15088DC2F81FE391C3923BEC73E23A9662EFC9C229C6A00 DUP1 SLOAD PUSH1 0x1 PUSH1 0x40 SHL DUP2 DIV PUSH1 0xFF AND ISZERO SWAP1 PUSH1 0x1 PUSH1 0x1 PUSH1 0x40 SHL SUB AND PUSH1 0x0 DUP2 ISZERO DUP1 ISZERO PUSH2 0x15CC JUMPI POP DUP3 JUMPDEST SWAP1 POP PUSH1 0x0 DUP3 PUSH1 0x1 PUSH1 0x1 PUSH1 0x40 SHL SUB AND PUSH1 0x1 EQ DUP1 ISZERO PUSH2 0x15E8 JUMPI POP ADDRESS EXTCODESIZE ISZERO JUMPDEST SWAP1 POP DUP2 ISZERO DUP1 ISZERO PUSH2 0x15F6 JUMPI POP DUP1 ISZERO JUMPDEST ISZERO PUSH2 0x1614 JUMPI PUSH1 0x40 MLOAD PUSH4 0xF92EE8A9 PUSH1 0xE0 SHL DUP2 MSTORE PUSH1 0x4 ADD PUSH1 0x40 MLOAD DUP1 SWAP2 SUB SWAP1 REVERT JUMPDEST DUP5 SLOAD PUSH8 0xFFFFFFFFFFFFFFFF NOT AND PUSH1 0x1 OR DUP6 SSTORE DUP4 ISZERO PUSH2 0x163E JUMPI DUP5 SLOAD PUSH1 0xFF PUSH1 0x40 SHL NOT AND PUSH1 0x1 PUSH1 0x40 SHL OR DUP6 SSTORE JUMPDEST PUSH2 0x1656 PUSH1 0x0 DUP1 MLOAD PUSH1 0x20 PUSH2 0x1FF9 DUP4 CODECOPY DUP2 MLOAD SWAP2 MSTORE DUP11 PUSH2 0x1707 JUMP JUMPDEST POP PUSH2 0x166F PUSH1 0x0 DUP1 MLOAD PUSH1 0x20 PUSH2 0x1FD9 DUP4 CODECOPY DUP2 MLOAD SWAP2 MSTORE DUP10 PUSH2 0x1707 JUMP JUMPDEST POP PUSH2 0x167B PUSH1 0x0 DUP11 PUSH2 0x1707 JUMP JUMPDEST POP PUSH1 0x4 DUP1 SLOAD PUSH1 0x1 PUSH1 0x1 PUSH1 0xA0 SHL SUB DUP1 DUP11 AND PUSH1 0x1 PUSH1 0x1 PUSH1 0xA0 SHL SUB NOT SWAP3 DUP4 AND OR SWAP1 SWAP3 SSTORE PUSH1 0x3 DUP1 SLOAD SWAP3 DUP10 AND SWAP3 SWAP1 SWAP2 AND SWAP2 SWAP1 SWAP2 OR SWAP1 SSTORE DUP4 ISZERO PUSH2 0x16F2 JUMPI DUP5 SLOAD PUSH1 0xFF PUSH1 0x40 SHL NOT AND DUP6 SSTORE PUSH1 0x40 MLOAD PUSH1 0x1 DUP2 MSTORE PUSH32 0xC7F505B2F371AE2175EE4913F4499E1F2633A7B5936321EED1CDAEB6115181D2 SWAP1 PUSH1 0x20 ADD PUSH1 0x40 MLOAD DUP1 SWAP2 SUB SWAP1 LOG1 JUMPDEST POP POP POP POP POP POP POP POP POP JUMP JUMPDEST PUSH2 0x9F4 DUP2 CALLER PUSH2 0x1A74 JUMP JUMPDEST PUSH1 0x0 PUSH2 0x1713 DUP4 DUP4 PUSH2 0x113B JUMP JUMPDEST PUSH2 0x1791 JUMPI PUSH1 0x0 DUP4 DUP2 MSTORE PUSH1 0x20 DUP2 DUP2 MSTORE PUSH1 0x40 DUP1 DUP4 KECCAK256 PUSH1 0x1 PUSH1 0x1 PUSH1 0xA0 SHL SUB DUP7 AND DUP5 MSTORE SWAP1 SWAP2 MSTORE SWAP1 KECCAK256 DUP1 SLOAD PUSH1 0xFF NOT AND PUSH1 0x1 OR SWAP1 SSTORE PUSH2 0x1749 CALLER SWAP1 JUMP JUMPDEST PUSH1 0x1 PUSH1 0x1 PUSH1 0xA0 SHL SUB AND DUP3 PUSH1 0x1 PUSH1 0x1 PUSH1 0xA0 SHL SUB AND DUP5 PUSH32 0x2F8788117E7EFF1D82E926EC794901D17C78024A50270940304540A733656F0D PUSH1 0x40 MLOAD PUSH1 0x40 MLOAD DUP1 SWAP2 SUB SWAP1 LOG4 POP PUSH1 0x1 PUSH2 0x616 JUMP JUMPDEST POP PUSH1 0x0 PUSH2 0x616 JUMP JUMPDEST PUSH1 0x0 PUSH2 0x17A5 DUP4 DUP4 PUSH2 0x113B JUMP JUMPDEST ISZERO PUSH2 0x1791 JUMPI PUSH1 0x0 DUP4 DUP2 MSTORE PUSH1 0x20 DUP2 DUP2 MSTORE PUSH1 0x40 DUP1 DUP4 KECCAK256 PUSH1 0x1 PUSH1 0x1 PUSH1 0xA0 SHL SUB DUP7 AND DUP1 DUP6 MSTORE SWAP3 MSTORE DUP1 DUP4 KECCAK256 DUP1 SLOAD PUSH1 0xFF NOT AND SWAP1 SSTORE MLOAD CALLER SWAP3 DUP7 SWAP2 PUSH32 0xF6391F5C32D9C69D2A47EA670B442974B53935D1EDC7FD64EB21E047A839171B SWAP2 SWAP1 LOG4 POP PUSH1 0x1 PUSH2 0x616 JUMP JUMPDEST PUSH1 0x1 SLOAD PUSH1 0xFF AND ISZERO PUSH2 0x1828 JUMPI PUSH1 0x40 MLOAD PUSH4 0xD93C0665 PUSH1 0xE0 SHL DUP2 MSTORE PUSH1 0x4 ADD PUSH1 0x40 MLOAD DUP1 SWAP2 SUB SWAP1 REVERT JUMPDEST JUMP JUMPDEST PUSH1 0x2 DUP1 SLOAD SUB PUSH2 0x184C JUMPI PUSH1 0x40 MLOAD PUSH4 0x3EE5AEB5 PUSH1 0xE0 SHL DUP2 MSTORE PUSH1 0x4 ADD PUSH1 0x40 MLOAD DUP1 SWAP2 SUB SWAP1 REVERT JUMPDEST PUSH1 0x2 DUP1 SSTORE JUMP JUMPDEST PUSH2 0x185A PUSH2 0x1AAD JUMP JUMPDEST PUSH1 0x1 DUP1 SLOAD PUSH1 0xFF NOT AND SWAP1 SSTORE PUSH32 0x5DB9EE0A495BF2E6FF9C91A7834C1BA4FDD244A5E8AA4E537BD38AEAE4B073AA CALLER JUMPDEST PUSH1 0x40 MLOAD PUSH1 0x1 PUSH1 0x1 PUSH1 0xA0 SHL SUB SWAP1 SWAP2 AND DUP2 MSTORE PUSH1 0x20 ADD PUSH1 0x40 MLOAD DUP1 SWAP2 SUB SWAP1 LOG1 JUMP JUMPDEST PUSH2 0x18AC PUSH2 0x1804 JUMP JUMPDEST PUSH1 0x1 DUP1 SLOAD PUSH1 0xFF NOT AND DUP2 OR SWAP1 SSTORE PUSH32 0x62E78CEA01BEE320CD4E420270B5EA74000D11B0C9F74754EBDBFC544B05A258 CALLER PUSH2 0x1887 JUMP JUMPDEST PUSH1 0x0 DUP3 DUP3 DUP3 DUP1 JUMPDEST DUP4 MLOAD DUP3 LT DUP1 PUSH2 0x18F5 JUMPI POP DUP3 MLOAD DUP2 LT JUMPDEST ISZERO PUSH2 0x1A67 JUMPI PUSH1 0x0 DUP1 JUMPDEST DUP6 MLOAD DUP5 LT DUP1 ISZERO PUSH2 0x1933 JUMPI POP DUP6 DUP5 DUP2 MLOAD DUP2 LT PUSH2 0x191B JUMPI PUSH2 0x191B PUSH2 0x1DEC JUMP JUMPDEST PUSH1 0x20 SWAP2 ADD ADD MLOAD PUSH1 0x1 PUSH1 0x1 PUSH1 0xF8 SHL SUB NOT AND PUSH1 0x17 PUSH1 0xF9 SHL EQ ISZERO JUMPDEST ISZERO PUSH2 0x198A JUMPI PUSH1 0x30 DUP7 DUP6 DUP2 MLOAD DUP2 LT PUSH2 0x194C JUMPI PUSH2 0x194C PUSH2 0x1DEC JUMP JUMPDEST ADD PUSH1 0x20 ADD MLOAD PUSH2 0x195E SWAP2 SWAP1 PUSH1 0xF8 SHR PUSH2 0x1F7C JUMP JUMPDEST PUSH1 0xFF AND PUSH2 0x196C DUP4 PUSH1 0xA PUSH2 0x1F95 JUMP JUMPDEST PUSH2 0x1976 SWAP2 SWAP1 PUSH2 0x1FAC JUMP JUMPDEST SWAP2 POP DUP4 PUSH2 0x1982 DUP2 PUSH2 0x1FBF JUMP JUMPDEST SWAP5 POP POP PUSH2 0x18FE JUMP JUMPDEST DUP5 MLOAD DUP4 LT DUP1 ISZERO PUSH2 0x19BF JUMPI POP DUP5 DUP4 DUP2 MLOAD DUP2 LT PUSH2 0x19A7 JUMPI PUSH2 0x19A7 PUSH2 0x1DEC JUMP JUMPDEST PUSH1 0x20 SWAP2 ADD ADD MLOAD PUSH1 0x1 PUSH1 0x1 PUSH1 0xF8 SHL SUB NOT AND PUSH1 0x17 PUSH1 0xF9 SHL EQ ISZERO JUMPDEST ISZERO PUSH2 0x1A16 JUMPI PUSH1 0x30 DUP6 DUP5 DUP2 MLOAD DUP2 LT PUSH2 0x19D8 JUMPI PUSH2 0x19D8 PUSH2 0x1DEC JUMP JUMPDEST ADD PUSH1 0x20 ADD MLOAD PUSH2 0x19EA SWAP2 SWAP1 PUSH1 0xF8 SHR PUSH2 0x1F7C JUMP JUMPDEST PUSH1 0xFF AND PUSH2 0x19F8 DUP3 PUSH1 0xA PUSH2 0x1F95 JUMP JUMPDEST PUSH2 0x1A02 SWAP2 SWAP1 PUSH2 0x1FAC JUMP JUMPDEST SWAP1 POP DUP3 PUSH2 0x1A0E DUP2 PUSH2 0x1FBF JUMP JUMPDEST SWAP4 POP POP PUSH2 0x198A JUMP JUMPDEST DUP1 DUP3 LT ISZERO PUSH2 0x1A2E JUMPI PUSH1 0x0 NOT SWAP7 POP POP POP POP POP POP POP PUSH2 0x616 JUMP JUMPDEST DUP1 DUP3 GT ISZERO PUSH2 0x1A45 JUMPI PUSH1 0x1 SWAP7 POP POP POP POP POP POP POP PUSH2 0x616 JUMP JUMPDEST DUP4 PUSH2 0x1A4F DUP2 PUSH2 0x1FBF JUMP JUMPDEST SWAP5 POP POP DUP3 DUP1 PUSH2 0x1A5D SWAP1 PUSH2 0x1FBF JUMP JUMPDEST SWAP4 POP POP POP POP PUSH2 0x18E6 JUMP JUMPDEST POP PUSH1 0x0 SWAP7 SWAP6 POP POP POP POP POP POP JUMP JUMPDEST PUSH2 0x1A7E DUP3 DUP3 PUSH2 0x113B JUMP JUMPDEST PUSH2 0x9D0 JUMPI PUSH1 0x40 MLOAD PUSH4 0xE2517D3F PUSH1 0xE0 SHL DUP2 MSTORE PUSH1 0x1 PUSH1 0x1 PUSH1 0xA0 SHL SUB DUP3 AND PUSH1 0x4 DUP3 ADD MSTORE PUSH1 0x24 DUP2 ADD DUP4 SWAP1 MSTORE PUSH1 0x44 ADD PUSH2 0x668 JUMP JUMPDEST PUSH1 0x1 SLOAD PUSH1 0xFF AND PUSH2 0x1828 JUMPI PUSH1 0x40 MLOAD PUSH4 0x8DFC202B PUSH1 0xE0 SHL DUP2 MSTORE PUSH1 0x4 ADD PUSH1 0x40 MLOAD DUP1 SWAP2 SUB SWAP1 REVERT JUMPDEST PUSH1 0x0 PUSH1 0x20 DUP3 DUP5 SUB SLT ISZERO PUSH2 0x1AE2 JUMPI PUSH1 0x0 DUP1 REVERT JUMPDEST DUP2 CALLDATALOAD PUSH1 0x1 PUSH1 0x1 PUSH1 0xE0 SHL SUB NOT DUP2 AND DUP2 EQ PUSH2 0x1AFA JUMPI PUSH1 0x0 DUP1 REVERT JUMPDEST SWAP4 SWAP3 POP POP POP JUMP JUMPDEST PUSH1 0x0 PUSH1 0x20 DUP3 DUP5 SUB SLT ISZERO PUSH2 0x1B13 JUMPI PUSH1 0x0 DUP1 REVERT JUMPDEST POP CALLDATALOAD SWAP2 SWAP1 POP JUMP JUMPDEST PUSH1 0x0 DUP1 DUP4 PUSH1 0x1F DUP5 ADD SLT PUSH2 0x1B2C JUMPI PUSH1 0x0 DUP1 REVERT JUMPDEST POP DUP2 CALLDATALOAD PUSH1 0x1 PUSH1 0x1 PUSH1 0x40 SHL SUB DUP2 GT ISZERO PUSH2 0x1B43 JUMPI PUSH1 0x0 DUP1 REVERT JUMPDEST PUSH1 0x20 DUP4 ADD SWAP2 POP DUP4 PUSH1 0x20 DUP3 PUSH1 0x5 SHL DUP6 ADD ADD GT ISZERO PUSH2 0x1B5E JUMPI PUSH1 0x0 DUP1 REVERT JUMPDEST SWAP3 POP SWAP3 SWAP1 POP JUMP JUMPDEST PUSH1 0x0 DUP1 PUSH1 0x20 DUP4 DUP6 SUB SLT ISZERO PUSH2 0x1B78 JUMPI PUSH1 0x0 DUP1 REVERT JUMPDEST DUP3 CALLDATALOAD PUSH1 0x1 PUSH1 0x1 PUSH1 0x40 SHL SUB DUP2 GT ISZERO PUSH2 0x1B8E JUMPI PUSH1 0x0 DUP1 REVERT JUMPDEST PUSH2 0x1B9A DUP6 DUP3 DUP7 ADD PUSH2 0x1B1A JUMP JUMPDEST SWAP1 SWAP7 SWAP1 SWAP6 POP SWAP4 POP POP POP POP JUMP JUMPDEST PUSH1 0x1 PUSH1 0x1 PUSH1 0xA0 SHL SUB DUP2 AND DUP2 EQ PUSH2 0x9F4 JUMPI PUSH1 0x0 DUP1 REVERT JUMPDEST PUSH1 0x0 DUP1 PUSH1 0x40 DUP4 DUP6 SUB SLT ISZERO PUSH2 0x1BCE JUMPI PUSH1 0x0 DUP1 REVERT JUMPDEST DUP3 CALLDATALOAD SWAP2 POP PUSH1 0x20 DUP4 ADD CALLDATALOAD PUSH2 0x1BE0 DUP2 PUSH2 0x1BA6 JUMP JUMPDEST DUP1 SWAP2 POP POP SWAP3 POP SWAP3 SWAP1 POP JUMP JUMPDEST PUSH1 0x0 PUSH1 0x20 DUP3 DUP5 SUB SLT ISZERO PUSH2 0x1BFD JUMPI PUSH1 0x0 DUP1 REVERT JUMPDEST DUP2 CALLDATALOAD PUSH2 0x1AFA DUP2 PUSH2 0x1BA6 JUMP JUMPDEST PUSH1 0x0 DUP1 PUSH1 0x0 DUP1 PUSH1 0x40 DUP6 DUP8 SUB SLT ISZERO PUSH2 0x1C1E JUMPI PUSH1 0x0 DUP1 REVERT JUMPDEST DUP5 CALLDATALOAD PUSH1 0x1 PUSH1 0x1 PUSH1 0x40 SHL SUB DUP2 GT ISZERO PUSH2 0x1C34 JUMPI PUSH1 0x0 DUP1 REVERT JUMPDEST PUSH2 0x1C40 DUP8 DUP3 DUP9 ADD PUSH2 0x1B1A JUMP JUMPDEST SWAP1 SWAP6 POP SWAP4 POP POP PUSH1 0x20 DUP6 ADD CALLDATALOAD PUSH1 0x1 PUSH1 0x1 PUSH1 0x40 SHL SUB DUP2 GT ISZERO PUSH2 0x1C5F JUMPI PUSH1 0x0 DUP1 REVERT JUMPDEST PUSH2 0x1C6B DUP8 DUP3 DUP9 ADD PUSH2 0x1B1A JUMP JUMPDEST SWAP6 SWAP9 SWAP5 SWAP8 POP SWAP6 POP POP POP POP JUMP JUMPDEST PUSH1 0x0 JUMPDEST DUP4 DUP2 LT ISZERO PUSH2 0x1C92 JUMPI DUP2 DUP2 ADD MLOAD DUP4 DUP3 ADD MSTORE PUSH1 0x20 ADD PUSH2 0x1C7A JUMP JUMPDEST POP POP PUSH1 0x0 SWAP2 ADD MSTORE JUMP JUMPDEST PUSH1 0x20 DUP2 MSTORE PUSH1 0x0 DUP3 MLOAD DUP1 PUSH1 0x20 DUP5 ADD MSTORE PUSH2 0x1CBA DUP2 PUSH1 0x40 DUP6 ADD PUSH1 0x20 DUP8 ADD PUSH2 0x1C77 JUMP JUMPDEST PUSH1 0x1F ADD PUSH1 0x1F NOT AND SWAP2 SWAP1 SWAP2 ADD PUSH1 0x40 ADD SWAP3 SWAP2 POP POP JUMP JUMPDEST PUSH1 0x20 DUP1 DUP3 MSTORE DUP3 MLOAD DUP3 DUP3 ADD DUP2 SWAP1 MSTORE PUSH1 0x0 SWAP2 DUP5 ADD SWAP1 PUSH1 0x40 DUP5 ADD SWAP1 DUP4 JUMPDEST DUP2 DUP2 LT ISZERO PUSH2 0x1D06 JUMPI DUP4 MLOAD DUP4 MSTORE PUSH1 0x20 SWAP4 DUP5 ADD SWAP4 SWAP1 SWAP3 ADD SWAP2 PUSH1 0x1 ADD PUSH2 0x1CE8 JUMP JUMPDEST POP SWAP1 SWAP6 SWAP5 POP POP POP POP POP JUMP JUMPDEST DUP1 CALLDATALOAD PUSH1 0x1 PUSH1 0x1 PUSH1 0x40 SHL SUB DUP2 AND DUP2 EQ PUSH2 0x1D28 JUMPI PUSH1 0x0 DUP1 REVERT JUMPDEST SWAP2 SWAP1 POP JUMP JUMPDEST PUSH1 0x0 DUP1 PUSH1 0x40 DUP4 DUP6 SUB SLT ISZERO PUSH2 0x1D40 JUMPI PUSH1 0x0 DUP1 REVERT JUMPDEST DUP3 CALLDATALOAD SWAP2 POP PUSH2 0x1D50 PUSH1 0x20 DUP5 ADD PUSH2 0x1D11 JUMP JUMPDEST SWAP1 POP SWAP3 POP SWAP3 SWAP1 POP JUMP JUMPDEST PUSH1 0x0 DUP1 PUSH1 0x0 DUP1 PUSH1 0x80 DUP6 DUP8 SUB SLT ISZERO PUSH2 0x1D6F JUMPI PUSH1 0x0 DUP1 REVERT JUMPDEST DUP5 CALLDATALOAD PUSH2 0x1D7A DUP2 PUSH2 0x1BA6 JUMP JUMPDEST SWAP4 POP PUSH1 0x20 DUP6 ADD CALLDATALOAD PUSH2 0x1D8A DUP2 PUSH2 0x1BA6 JUMP JUMPDEST SWAP3 POP PUSH1 0x40 DUP6 ADD CALLDATALOAD PUSH2 0x1D9A DUP2 PUSH2 0x1BA6 JUMP JUMPDEST SWAP2 POP PUSH1 0x60 DUP6 ADD CALLDATALOAD PUSH2 0x1DAA DUP2 PUSH2 0x1BA6 JUMP JUMPDEST SWAP4 SWAP7 SWAP3 SWAP6 POP SWAP1 SWAP4 POP POP JUMP JUMPDEST PUSH1 0x20 DUP1 DUP3 MSTORE PUSH1 0x17 SWAP1 DUP3 ADD MSTORE PUSH32 0x57617272616E747920646F6573206E6F74206578697374000000000000000000 PUSH1 0x40 DUP3 ADD MSTORE PUSH1 0x60 ADD SWAP1 JUMP JUMPDEST PUSH4 0x4E487B71 PUSH1 0xE0 SHL PUSH1 0x0 MSTORE PUSH1 0x32 PUSH1 0x4 MSTORE PUSH1 0x24 PUSH1 0x0 REVERT JUMPDEST PUSH1 0x0 DUP3 MLOAD PUSH2 0x1E14 DUP2 DUP5 PUSH1 0x20 DUP8 ADD PUSH2 0x1C77 JUMP JUMPDEST SWAP2 SWAP1 SWAP2 ADD SWAP3 SWAP2 POP POP JUMP JUMPDEST PUSH1 0x0 PUSH1 0x20 DUP3 DUP5 SUB SLT ISZERO PUSH2 0x1E30 JUMPI PUSH1 0x0 DUP1 REVERT JUMPDEST PUSH2 0x1AFA DUP3 PUSH2 0x1D11 JUMP JUMPDEST PUSH4 0x4E487B71 PUSH1 0xE0 SHL PUSH1 0x0 MSTORE PUSH1 0x11 PUSH1 0x4 MSTORE PUSH1 0x24 PUSH1 0x0 REVERT JUMPDEST PUSH1 0x1 PUSH1 0x1 PUSH1 0x40 SHL SUB DUP2 DUP2 AND DUP4 DUP3 AND ADD SWAP1 DUP2 GT ISZERO PUSH2 0x616 JUMPI PUSH2 0x616 PUSH2 0x1E39 JUMP JUMPDEST PUSH4 0x4E487B71 PUSH1 0xE0 SHL PUSH1 0x0 MSTORE PUSH1 0x41 PUSH1 0x4 MSTORE PUSH1 0x24 PUSH1 0x0 REVERT JUMPDEST PUSH1 0x0 PUSH1 0x20 DUP3 DUP5 SUB SLT ISZERO PUSH2 0x1E96 JUMPI PUSH1 0x0 DUP1 REVERT JUMPDEST DUP2 MLOAD PUSH1 0x1 PUSH1 0x1 PUSH1 0x40 SHL SUB DUP2 GT ISZERO PUSH2 0x1EAC JUMPI PUSH1 0x0 DUP1 REVERT JUMPDEST DUP3 ADD PUSH1 0x1F DUP2 ADD DUP5 SGT PUSH2 0x1EBD JUMPI PUSH1 0x0 DUP1 REVERT JUMPDEST DUP1 MLOAD PUSH1 0x1 PUSH1 0x1 PUSH1 0x40 SHL SUB DUP2 GT ISZERO PUSH2 0x1ED6 JUMPI PUSH2 0x1ED6 PUSH2 0x1E6E JUMP JUMPDEST PUSH1 0x40 MLOAD PUSH1 0x1F DUP3 ADD PUSH1 0x1F NOT SWAP1 DUP2 AND PUSH1 0x3F ADD AND DUP2 ADD PUSH1 0x1 PUSH1 0x1 PUSH1 0x40 SHL SUB DUP2 GT DUP3 DUP3 LT OR ISZERO PUSH2 0x1F04 JUMPI PUSH2 0x1F04 PUSH2 0x1E6E JUMP JUMPDEST PUSH1 0x40 MSTORE DUP2 DUP2 MSTORE DUP3 DUP3 ADD PUSH1 0x20 ADD DUP7 LT ISZERO PUSH2 0x1F1C JUMPI PUSH1 0x0 DUP1 REVERT JUMPDEST PUSH2 0x1F2D DUP3 PUSH1 0x20 DUP4 ADD PUSH1 0x20 DUP7 ADD PUSH2 0x1C77 JUMP JUMPDEST SWAP6 SWAP5 POP POP POP POP POP JUMP JUMPDEST PUSH1 0x0 PUSH1 0x20 DUP3 DUP5 SUB SLT ISZERO PUSH2 0x1F48 JUMPI PUSH1 0x0 DUP1 REVERT JUMPDEST DUP2 MLOAD PUSH2 0x1AFA DUP2 PUSH2 0x1BA6 JUMP JUMPDEST DUP2 DUP2 SUB DUP2 DUP2 GT ISZERO PUSH2 0x616 JUMPI PUSH2 0x616 PUSH2 0x1E39 JUMP JUMPDEST PUSH4 0x4E487B71 PUSH1 0xE0 SHL PUSH1 0x0 MSTORE PUSH1 0x31 PUSH1 0x4 MSTORE PUSH1 0x24 PUSH1 0x0 REVERT JUMPDEST PUSH1 0xFF DUP3 DUP2 AND DUP3 DUP3 AND SUB SWAP1 DUP2 GT ISZERO PUSH2 0x616 JUMPI PUSH2 0x616 PUSH2 0x1E39 JUMP JUMPDEST DUP1 DUP3 MUL DUP2 ISZERO DUP3 DUP3 DIV DUP5 EQ OR PUSH2 0x616 JUMPI PUSH2 0x616 PUSH2 0x1E39 JUMP JUMPDEST DUP1 DUP3 ADD DUP1 DUP3 GT ISZERO PUSH2 0x616 JUMPI PUSH2 0x616 PUSH2 0x1E39 JUMP JUMPDEST PUSH1 0x0 PUSH1 0x1 DUP3 ADD PUSH2 0x1FD1 JUMPI PUSH2 0x1FD1 PUSH2 0x1E39 JUMP JUMPDEST POP PUSH1 0x1 ADD SWAP1 JUMP INVALID SWAP16 0x2D CREATE INVALID 0xD2 0xC7 PUSH23 0x48DE5860A4CC508CD0818C85B8B8A1AB4CEEEF8D981C89 JUMP 0xA6 LOG4 SWAP9 SMOD KECCAK256 TLOAD 0xE4 0xD3 SSTORE MULMOD 0x2E CREATE2 0xA8 LOG1 DUP16 JUMP 0xE8 SWAP2 EXTCODECOPY DELEGATECALL LOG2 ADD 0xFB 0xE2 DUP8 DUP3 JUMPDEST MULMOD JUMP SWAP4 0xC2 OR PUSH22 0xA2646970667358221220F48E96B676E81793C67331C2 BALANCE SHR SWAP5 0xEB PUSH28 0x8E769E61E53A939DC74B40ACDA576B64736F6C634300081C00330000 "},"methodIdentifiers":{"ADMIN_ROLE()":"75b238fc","DEFAULT_ADMIN_ROLE()":"a217fddf","MAX_WARRANTY_DURATION()":"3b8b8387","MINTER_ROLE()":"d5391393","auditLogicContract(address)":"995a343b","disableWarrantiesBatch(uint256[])":"2b5e45fd","disableWarranty(uint256)":"04473c4d","extendWarrantiesBatch(uint256[],uint64[])":"5324bcf9","extendWarranty(uint256,uint64)":"6f2a023e","getLogicContractVersion(address)":"65f64bdd","getRoleAdmin(bytes32)":"248a9ca3","getTokenIdsByOwner(address)":"6970bb0a","getWarrantyEndDate(uint256)":"02315ab5","getWarrantyInfo(uint256)":"ecf67466","getWarrantyStartDate(uint256)":"618a9614","grantRole(bytes32,address)":"2f2ff15d","hasRole(bytes32,address)":"91d14854","initialize(address,address,address,address)":"f8c8765e","isWarrantyActive(uint256)":"ad150d3d","isWarrantyExpired(uint256)":"7bef4f3a","issueWarranty(uint256,uint64)":"ad36a191","nftContract()":"d56d229d","pause()":"8456cb59","paused()":"5c975abb","proxy()":"ec556889","proxyAddress()":"23f5c02d","renounceRole(bytes32,address)":"36568abe","revokeRole(bytes32,address)":"d547741f","rollbackLogicContract(address)":"b8f04a58","supportsInterface(bytes4)":"01ffc9a7","transferWarranty(uint256,address)":"90581cdb","unpause()":"3f4ba83a","upgradeTo(address)":"3659cfe6","version()":"54fd4d50","warrantyExists(uint256)":"62a3a3b5"}},"storageLayout":{"storage":[{"astId":1985,"contract":"contracts/manager.sol:WarrantyManagerV1","label":"_roles","offset":0,"slot":"0","type":"t_mapping(t_bytes32,t_struct(RoleData)1980_storage)"},{"astId":3817,"contract":"contracts/manager.sol:WarrantyManagerV1","label":"_paused","offset":0,"slot":"1","type":"t_bool"},{"astId":3936,"contract":"contracts/manager.sol:WarrantyManagerV1","label":"_status","offset":0,"slot":"2","type":"t_uint256"},{"astId":8049,"contract":"contracts/manager.sol:WarrantyManagerV1","label":"proxy","offset":0,"slot":"3","type":"t_contract(TransparentUpgradeableProxy)3205"},{"astId":8055,"contract":"contracts/manager.sol:WarrantyManagerV1","label":"nftContract","offset":0,"slot":"4","type":"t_contract(IERC721)3322"},{"astId":8057,"contract":"contracts/manager.sol:WarrantyManagerV1","label":"proxyAddress","offset":0,"slot":"5","type":"t_address"},{"astId":8090,"contract":"contracts/manager.sol:WarrantyManagerV1","label":"warranties","offset":0,"slot":"6","type":"t_mapping(t_uint256,t_struct(Warranty)8085_storage)"},{"astId":8095,"contract":"contracts/manager.sol:WarrantyManagerV1","label":"ownerToTokenIds","offset":0,"slot":"7","type":"t_mapping(t_address,t_array(t_uint256)dyn_storage)"}],"types":{"t_address":{"encoding":"inplace","label":"address","numberOfBytes":"20"},"t_array(t_uint256)dyn_storage":{"base":"t_uint256","encoding":"dynamic_array","label":"uint256[]","numberOfBytes":"32"},"t_bool":{"encoding":"inplace","label":"bool","numberOfBytes":"1"},"t_bytes32":{"encoding":"inplace","label":"bytes32","numberOfBytes":"32"},"t_contract(IERC721)3322":{"encoding":"inplace","label":"contract IERC721","numberOfBytes":"20"},"t_contract(TransparentUpgradeableProxy)3205":{"encoding":"inplace","label":"contract TransparentUpgradeableProxy","numberOfBytes":"20"},"t_mapping(t_address,t_array(t_uint256)dyn_storage)":{"encoding":"mapping","key":"t_address","label":"mapping(address => uint256[])","numberOfBytes":"32","value":"t_array(t_uint256)dyn_storage"},"t_mapping(t_address,t_bool)":{"encoding":"mapping","key":"t_address","label":"mapping(address => bool)","numberOfBytes":"32","value":"t_bool"},"t_mapping(t_bytes32,t_struct(RoleData)1980_storage)":{"encoding":"mapping","key":"t_bytes32","label":"mapping(bytes32 => struct AccessControl.RoleData)","numberOfBytes":"32","value":"t_struct(RoleData)1980_storage"},"t_mapping(t_uint256,t_struct(Warranty)8085_storage)":{"encoding":"mapping","key":"t_uint256","label":"mapping(uint256 => struct WarrantyManagerV1.Warranty)","numberOfBytes":"32","value":"t_struct(Warranty)8085_storage"},"t_struct(RoleData)1980_storage":{"encoding":"inplace","label":"struct AccessControl.RoleData","members":[{"astId":1977,"contract":"contracts/manager.sol:WarrantyManagerV1","label":"hasRole","offset":0,"slot":"0","type":"t_mapping(t_address,t_bool)"},{"astId":1979,"contract":"contracts/manager.sol:WarrantyManagerV1","label":"adminRole","offset":0,"slot":"1","type":"t_bytes32"}],"numberOfBytes":"64"},"t_struct(Warranty)8085_storage":{"encoding":"inplace","label":"struct WarrantyManagerV1.Warranty","members":[{"astId":8080,"contract":"contracts/manager.sol:WarrantyManagerV1","label":"startDate","offset":0,"slot":"0","type":"t_uint64"},{"astId":8082,"contract":"contracts/manager.sol:WarrantyManagerV1","label":"endDate","offset":8,"slot":"0","type":"t_uint64"},{"astId":8084,"contract":"contracts/manager.sol:WarrantyManagerV1","label":"isActive","offset":16,"slot":"0","type":"t_bool"}],"numberOfBytes":"32"},"t_uint256":{"encoding":"inplace","label":"uint256","numberOfBytes":"32"},"t_uint64":{"encoding":"inplace","label":"uint64","numberOfBytes":"8"}}}}}}