{
  "_format": "hh-sol-artifact-1",
  "contractName": "WarrantyManagerV1",
  "sourceName": "contracts/manager.sol",
  "abi": [
    {
      "inputs": [],
      "name": "AccessControlBadConfirmation",
      "type": "error"
    },
    {
      "inputs": [
        {
          "internalType": "address",
          "name": "account",
          "type": "address"
        },
        {
          "internalType": "bytes32",
          "name": "neededRole",
          "type": "bytes32"
        }
      ],
      "name": "AccessControlUnauthorizedAccount",
      "type": "error"
    },
    {
      "inputs": [],
      "name": "EnforcedPause",
      "type": "error"
    },
    {
      "inputs": [],
      "name": "ExpectedPause",
      "type": "error"
    },
    {
      "inputs": [],
      "name": "InvalidInitialization",
      "type": "error"
    },
    {
      "inputs": [],
      "name": "NotInitializing",
      "type": "error"
    },
    {
      "inputs": [],
      "name": "ReentrancyGuardReentrantCall",
      "type": "error"
    },
    {
      "anonymous": false,
      "inputs": [
        {
          "indexed": false,
          "internalType": "uint64",
          "name": "version",
          "type": "uint64"
        }
      ],
      "name": "Initialized",
      "type": "event"
    },
    {
      "anonymous": false,
      "inputs": [
        {
          "indexed": false,
          "internalType": "address",
          "name": "account",
          "type": "address"
        }
      ],
      "name": "Paused",
      "type": "event"
    },
    {
      "anonymous": false,
      "inputs": [
        {
          "indexed": true,
          "internalType": "bytes32",
          "name": "role",
          "type": "bytes32"
        },
        {
          "indexed": true,
          "internalType": "bytes32",
          "name": "previousAdminRole",
          "type": "bytes32"
        },
        {
          "indexed": true,
          "internalType": "bytes32",
          "name": "newAdminRole",
          "type": "bytes32"
        }
      ],
      "name": "RoleAdminChanged",
      "type": "event"
    },
    {
      "anonymous": false,
      "inputs": [
        {
          "indexed": true,
          "internalType": "bytes32",
          "name": "role",
          "type": "bytes32"
        },
        {
          "indexed": true,
          "internalType": "address",
          "name": "account",
          "type": "address"
        },
        {
          "indexed": true,
          "internalType": "address",
          "name": "sender",
          "type": "address"
        }
      ],
      "name": "RoleGranted",
      "type": "event"
    },
    {
      "anonymous": false,
      "inputs": [
        {
          "indexed": true,
          "internalType": "bytes32",
          "name": "role",
          "type": "bytes32"
        },
        {
          "indexed": true,
          "internalType": "address",
          "name": "account",
          "type": "address"
        },
        {
          "indexed": true,
          "internalType": "address",
          "name": "sender",
          "type": "address"
        }
      ],
      "name": "RoleRevoked",
      "type": "event"
    },
    {
      "anonymous": false,
      "inputs": [
        {
          "indexed": false,
          "internalType": "address",
          "name": "account",
          "type": "address"
        }
      ],
      "name": "Unpaused",
      "type": "event"
    },
    {
      "anonymous": false,
      "inputs": [
        {
          "indexed": true,
          "internalType": "uint256",
          "name": "tokenId",
          "type": "uint256"
        }
      ],
      "name": "WarrantyDisabled",
      "type": "event"
    },
    {
      "anonymous": false,
      "inputs": [
        {
          "indexed": true,
          "internalType": "uint256",
          "name": "tokenId",
          "type": "uint256"
        },
        {
          "indexed": false,
          "internalType": "uint64",
          "name": "newEndDate",
          "type": "uint64"
        }
      ],
      "name": "WarrantyExtended",
      "type": "event"
    },
    {
      "anonymous": false,
      "inputs": [
        {
          "indexed": true,
          "internalType": "uint256",
          "name": "tokenId",
          "type": "uint256"
        },
        {
          "indexed": false,
          "internalType": "uint64",
          "name": "startDate",
          "type": "uint64"
        },
        {
          "indexed": false,
          "internalType": "uint64",
          "name": "endDate",
          "type": "uint64"
        }
      ],
      "name": "WarrantyIssued",
      "type": "event"
    },
    {
      "anonymous": false,
      "inputs": [
        {
          "indexed": true,
          "internalType": "uint256",
          "name": "tokenId",
          "type": "uint256"
        },
        {
          "indexed": true,
          "internalType": "address",
          "name": "previousOwner",
          "type": "address"
        },
        {
          "indexed": true,
          "internalType": "address",
          "name": "newOwner",
          "type": "address"
        }
      ],
      "name": "WarrantyTransferred",
      "type": "event"
    },
    {
      "inputs": [],
      "name": "ADMIN_ROLE",
      "outputs": [
        {
          "internalType": "bytes32",
          "name": "",
          "type": "bytes32"
        }
      ],
      "stateMutability": "view",
      "type": "function"
    },
    {
      "inputs": [],
      "name": "DEFAULT_ADMIN_ROLE",
      "outputs": [
        {
          "internalType": "bytes32",
          "name": "",
          "type": "bytes32"
        }
      ],
      "stateMutability": "view",
      "type": "function"
    },
    {
      "inputs": [],
      "name": "MAX_WARRANTY_DURATION",
      "outputs": [
        {
          "internalType": "uint64",
          "name": "",
          "type": "uint64"
        }
      ],
      "stateMutability": "view",
      "type": "function"
    },
    {
      "inputs": [],
      "name": "MINTER_ROLE",
      "outputs": [
        {
          "internalType": "bytes32",
          "name": "",
          "type": "bytes32"
        }
      ],
      "stateMutability": "view",
      "type": "function"
    },
    {
      "inputs": [
        {
          "internalType": "address",
          "name": "stableLogicAddress",
          "type": "address"
        }
      ],
      "name": "auditLogicContract",
      "outputs": [],
      "stateMutability": "view",
      "type": "function"
    },
    {
      "inputs": [
        {
          "internalType": "uint256[]",
          "name": "tokenIds",
          "type": "uint256[]"
        }
      ],
      "name": "disableWarrantiesBatch",
      "outputs": [],
      "stateMutability": "nonpayable",
      "type": "function"
    },
    {
      "inputs": [
        {
          "internalType": "uint256",
          "name": "tokenId",
          "type": "uint256"
        }
      ],
      "name": "disableWarranty",
      "outputs": [],
      "stateMutability": "nonpayable",
      "type": "function"
    },
    {
      "inputs": [
        {
          "internalType": "uint256[]",
          "name": "tokenIds",
          "type": "uint256[]"
        },
        {
          "internalType": "uint64[]",
          "name": "durations",
          "type": "uint64[]"
        }
      ],
      "name": "extendWarrantiesBatch",
      "outputs": [],
      "stateMutability": "nonpayable",
      "type": "function"
    },
    {
      "inputs": [
        {
          "internalType": "uint256",
          "name": "tokenId",
          "type": "uint256"
        },
        {
          "internalType": "uint64",
          "name": "additionalDays",
          "type": "uint64"
        }
      ],
      "name": "extendWarranty",
      "outputs": [],
      "stateMutability": "nonpayable",
      "type": "function"
    },
    {
      "inputs": [
        {
          "internalType": "address",
          "name": "logicAddress",
          "type": "address"
        }
      ],
      "name": "getLogicContractVersion",
      "outputs": [
        {
          "internalType": "string",
          "name": "",
          "type": "string"
        }
      ],
      "stateMutability": "view",
      "type": "function"
    },
    {
      "inputs": [
        {
          "internalType": "bytes32",
          "name": "role",
          "type": "bytes32"
        }
      ],
      "name": "getRoleAdmin",
      "outputs": [
        {
          "internalType": "bytes32",
          "name": "",
          "type": "bytes32"
        }
      ],
      "stateMutability": "view",
      "type": "function"
    },
    {
      "inputs": [
        {
          "internalType": "address",
          "name": "owner",
          "type": "address"
        }
      ],
      "name": "getTokenIdsByOwner",
      "outputs": [
        {
          "internalType": "uint256[]",
          "name": "",
          "type": "uint256[]"
        }
      ],
      "stateMutability": "view",
      "type": "function"
    },
    {
      "inputs": [
        {
          "internalType": "uint256",
          "name": "tokenId",
          "type": "uint256"
        }
      ],
      "name": "getWarrantyEndDate",
      "outputs": [
        {
          "internalType": "uint64",
          "name": "",
          "type": "uint64"
        }
      ],
      "stateMutability": "view",
      "type": "function"
    },
    {
      "inputs": [
        {
          "internalType": "uint256",
          "name": "tokenId",
          "type": "uint256"
        }
      ],
      "name": "getWarrantyInfo",
      "outputs": [
        {
          "internalType": "uint64",
          "name": "startDate",
          "type": "uint64"
        },
        {
          "internalType": "uint64",
          "name": "endDate",
          "type": "uint64"
        },
        {
          "internalType": "bool",
          "name": "isActive",
          "type": "bool"
        }
      ],
      "stateMutability": "view",
      "type": "function"
    },
    {
      "inputs": [
        {
          "internalType": "uint256",
          "name": "tokenId",
          "type": "uint256"
        }
      ],
      "name": "getWarrantyStartDate",
      "outputs": [
        {
          "internalType": "uint64",
          "name": "",
          "type": "uint64"
        }
      ],
      "stateMutability": "view",
      "type": "function"
    },
    {
      "inputs": [
        {
          "internalType": "bytes32",
          "name": "role",
          "type": "bytes32"
        },
        {
          "internalType": "address",
          "name": "account",
          "type": "address"
        }
      ],
      "name": "grantRole",
      "outputs": [],
      "stateMutability": "nonpayable",
      "type": "function"
    },
    {
      "inputs": [
        {
          "internalType": "bytes32",
          "name": "role",
          "type": "bytes32"
        },
        {
          "internalType": "address",
          "name": "account",
          "type": "address"
        }
      ],
      "name": "hasRole",
      "outputs": [
        {
          "internalType": "bool",
          "name": "",
          "type": "bool"
        }
      ],
      "stateMutability": "view",
      "type": "function"
    },
    {
      "inputs": [
        {
          "internalType": "address",
          "name": "admin",
          "type": "address"
        },
        {
          "internalType": "address",
          "name": "minter",
          "type": "address"
        },
        {
          "internalType": "address",
          "name": "nftAddress",
          "type": "address"
        },
        {
          "internalType": "address",
          "name": "_proxyAddress",
          "type": "address"
        }
      ],
      "name": "initialize",
      "outputs": [],
      "stateMutability": "nonpayable",
      "type": "function"
    },
    {
      "inputs": [
        {
          "internalType": "uint256",
          "name": "tokenId",
          "type": "uint256"
        }
      ],
      "name": "isWarrantyActive",
      "outputs": [
        {
          "internalType": "bool",
          "name": "",
          "type": "bool"
        }
      ],
      "stateMutability": "view",
      "type": "function"
    },
    {
      "inputs": [
        {
          "internalType": "uint256",
          "name": "tokenId",
          "type": "uint256"
        }
      ],
      "name": "isWarrantyExpired",
      "outputs": [
        {
          "internalType": "bool",
          "name": "",
          "type": "bool"
        }
      ],
      "stateMutability": "view",
      "type": "function"
    },
    {
      "inputs": [
        {
          "internalType": "uint256",
          "name": "tokenId",
          "type": "uint256"
        },
        {
          "internalType": "uint64",
          "name": "duration",
          "type": "uint64"
        }
      ],
      "name": "issueWarranty",
      "outputs": [],
      "stateMutability": "nonpayable",
      "type": "function"
    },
    {
      "inputs": [],
      "name": "nftContract",
      "outputs": [
        {
          "internalType": "contract IERC721",
          "name": "",
          "type": "address"
        }
      ],
      "stateMutability": "view",
      "type": "function"
    },
    {
      "inputs": [],
      "name": "pause",
      "outputs": [],
      "stateMutability": "nonpayable",
      "type": "function"
    },
    {
      "inputs": [],
      "name": "paused",
      "outputs": [
        {
          "internalType": "bool",
          "name": "",
          "type": "bool"
        }
      ],
      "stateMutability": "view",
      "type": "function"
    },
    {
      "inputs": [],
      "name": "proxy",
      "outputs": [
        {
          "internalType": "contract TransparentUpgradeableProxy",
          "name": "",
          "type": "address"
        }
      ],
      "stateMutability": "view",
      "type": "function"
    },
    {
      "inputs": [],
      "name": "proxyAddress",
      "outputs": [
        {
          "internalType": "address",
          "name": "",
          "type": "address"
        }
      ],
      "stateMutability": "view",
      "type": "function"
    },
    {
      "inputs": [
        {
          "internalType": "bytes32",
          "name": "role",
          "type": "bytes32"
        },
        {
          "internalType": "address",
          "name": "callerConfirmation",
          "type": "address"
        }
      ],
      "name": "renounceRole",
      "outputs": [],
      "stateMutability": "nonpayable",
      "type": "function"
    },
    {
      "inputs": [
        {
          "internalType": "bytes32",
          "name": "role",
          "type": "bytes32"
        },
        {
          "internalType": "address",
          "name": "account",
          "type": "address"
        }
      ],
      "name": "revokeRole",
      "outputs": [],
      "stateMutability": "nonpayable",
      "type": "function"
    },
    {
      "inputs": [
        {
          "internalType": "address",
          "name": "stableLogicAddress",
          "type": "address"
        }
      ],
      "name": "rollbackLogicContract",
      "outputs": [],
      "stateMutability": "nonpayable",
      "type": "function"
    },
    {
      "inputs": [
        {
          "internalType": "bytes4",
          "name": "interfaceId",
          "type": "bytes4"
        }
      ],
      "name": "supportsInterface",
      "outputs": [
        {
          "internalType": "bool",
          "name": "",
          "type": "bool"
        }
      ],
      "stateMutability": "view",
      "type": "function"
    },
    {
      "inputs": [
        {
          "internalType": "uint256",
          "name": "tokenId",
          "type": "uint256"
        },
        {
          "internalType": "address",
          "name": "newOwner",
          "type": "address"
        }
      ],
      "name": "transferWarranty",
      "outputs": [],
      "stateMutability": "nonpayable",
      "type": "function"
    },
    {
      "inputs": [],
      "name": "unpause",
      "outputs": [],
      "stateMutability": "nonpayable",
      "type": "function"
    },
    {
      "inputs": [
        {
          "internalType": "address",
          "name": "stableLogicAddress",
          "type": "address"
        }
      ],
      "name": "upgradeTo",
      "outputs": [],
      "stateMutability": "nonpayable",
      "type": "function"
    },
    {
      "inputs": [],
      "name": "version",
      "outputs": [
        {
          "internalType": "string",
          "name": "",
          "type": "string"
        }
      ],
      "stateMutability": "pure",
      "type": "function"
    },
    {
      "inputs": [
        {
          "internalType": "uint256",
          "name": "tokenId",
          "type": "uint256"
        }
      ],
      "name": "warrantyExists",
      "outputs": [
        {
          "internalType": "bool",
          "name": "",
          "type": "bool"
        }
      ],
      "stateMutability": "view",
      "type": "function"
    }
  ],
  "bytecode": "0x6080604052348015600f57600080fd5b506001805460ff1916815560025561204e8061002c6000396000f3fe608060405234801561001057600080fd5b50600436106102115760003560e01c80636970bb0a11610125578063ad150d3d116100ad578063d547741f1161007c578063d547741f1461050e578063d56d229d14610521578063ec55688914610534578063ecf6746614610547578063f8c8765e146105d257600080fd5b8063ad150d3d146104a9578063ad36a191146104d3578063b8f04a58146104e6578063d5391393146104f957600080fd5b80638456cb59116100f45780638456cb591461046057806390581cdb1461046857806391d148541461047b578063995a343b1461048e578063a217fddf146104a157600080fd5b80636970bb0a146104055780636f2a023e1461042557806375b238fc146104385780637bef4f3a1461044d57600080fd5b80633659cfe6116101a857806354fd4d501161017757806354fd4d50146103695780635c975abb14610393578063618a96141461039e57806362a3a3b5146103c757806365f64bdd146103f257600080fd5b80633659cfe6146103305780633b8b8387146103435780633f4ba83a1461034e5780635324bcf91461035657600080fd5b8063248a9ca3116101e4578063248a9ca3146102c65780632b5e45fd146102f75780632f2ff15d1461030a57806336568abe1461031d57600080fd5b806301ffc9a71461021657806302315ab51461023e57806304473c4d1461028657806323f5c02d1461029b575b600080fd5b610229610224366004611ad0565b6105e5565b60405190151581526020015b60405180910390f35b61026e61024c366004611b01565b600090815260066020526040902054600160401b90046001600160401b031690565b6040516001600160401b039091168152602001610235565b610299610294366004611b01565b61061c565b005b6005546102ae906001600160a01b031681565b6040516001600160a01b039091168152602001610235565b6102e96102d4366004611b01565b60009081526020819052604090206001015490565b604051908152602001610235565b610299610305366004611b65565b6106b5565b610299610318366004611bbb565b6107c7565b61029961032b366004611bbb565b6107ec565b61029961033e366004611beb565b610824565b61026e6312cc030081565b6102996109d4565b610299610364366004611c08565b6109f7565b6040805180820190915260058152640312e302e360dc1b60208201525b6040516102359190611c9b565b60015460ff16610229565b61026e6103ac366004611b01565b6000908152600660205260409020546001600160401b031690565b6102296103d5366004611b01565b6000908152600660205260409020546001600160401b0316151590565b610386610400366004611beb565b610b68565b610418610413366004611beb565b610bd0565b6040516102359190611cce565b610299610433366004611d2d565b610c3c565b6102e9600080516020611ff983398151915281565b61022961045b366004611b01565b610d84565b610299610ddd565b610299610476366004611bbb565b610dfd565b610229610489366004611bbb565b61113b565b61029961049c366004611beb565b611164565b6102e9600081565b6102296104b7366004611b01565b600090815260066020526040902054600160801b900460ff1690565b6102996104e1366004611d2d565b6112f1565b6102996104f4366004611beb565b6114cf565b6102e9600080516020611fd983398151915281565b61029961051c366004611bbb565b611562565b6004546102ae906001600160a01b031681565b6003546102ae906001600160a01b031681565b6105aa610555366004611b01565b600090815260066020908152604091829020825160608101845290546001600160401b03808216808452600160401b8304909116938301849052600160801b90910460ff161515919093018190529192909190565b604080516001600160401b039485168152939092166020840152151590820152606001610235565b6102996105e0366004611d59565b611587565b60006001600160e01b03198216637965db0b60e01b148061061657506301ffc9a760e01b6001600160e01b03198316145b92915050565b600080516020611ff9833981519152610634816116fd565b6000828152600660205260409020546001600160401b03166106715760405162461bcd60e51b815260040161066890611db5565b60405180910390fd5b600082815260066020526040808220805460ff60801b191690555183917f39f89407a0be143807bae44759600c5043b80aa64cf357a8320bfe93587744ec91a25050565b600080516020611ff98339815191526106cd816116fd565b60005b828110156107c1576107118484838181106106ed576106ed611dec565b905060200201356000908152600660205260409020546001600160401b0316151590565b61072d5760405162461bcd60e51b815260040161066890611db5565b60006006600086868581811061074557610745611dec565b90506020020135815260200190815260200160002060000160106101000a81548160ff02191690831515021790555083838281811061078657610786611dec565b905060200201357f39f89407a0be143807bae44759600c5043b80aa64cf357a8320bfe93587744ec60405160405180910390a26001016106d0565b50505050565b6000828152602081905260409020600101546107e2816116fd565b6107c18383611707565b6001600160a01b03811633146108155760405163334bd91960e11b815260040160405180910390fd5b61081f8282611799565b505050565b600080516020611ff983398151915261083c816116fd565b610844611804565b61084c61182a565b6001600160a01b0382166108945760405162461bcd60e51b815260206004820152600f60248201526e496e76616c6964206164647265737360881b6044820152606401610668565b60405163995a343b60e01b81526001600160a01b0383166004820152309063995a343b9060240160006040518083038186803b1580156108d357600080fd5b505afa1580156108e7573d6000803e3d6000fd5b50506003546040516001600160a01b0386811660248301526000945090911691506044015b60408051601f198184030181529181526020820180516001600160e01b0316631b2ce7f360e11b179052516109419190611e02565b6000604051808303816000865af19150503d806000811461097e576040519150601f19603f3d011682016040523d82523d6000602084013e610983565b606091505b50509050806109c55760405162461bcd60e51b815260206004820152600e60248201526d155c19dc9859194819985a5b195960921b6044820152606401610668565b506109d06001600255565b5050565b600080516020611ff98339815191526109ec816116fd565b6109f4611852565b50565b600080516020611fd9833981519152610a0f816116fd565b610a17611804565b610a1f61182a565b838214610a625760405162461bcd60e51b81526020600482015260116024820152704d69736d6174636865642061727261797360781b6044820152606401610668565b60005b84811015610b56576000868683818110610a8157610a81611dec565b9050602002013590506000858584818110610a9e57610a9e611dec565b9050602002016020810190610ab39190611e1e565b600083815260066020526040902054610adc9190600160401b90046001600160401b0316611e4f565b600083815260066020908152604091829020805467ffffffffffffffff60401b1916600160401b6001600160401b03861690810291909117909155915191825291925083917f0a96b3a9b8c2c2e35fae1ef064d429b87564ec1ed72bf0f3409a4d80b9989ba8910160405180910390a25050600101610a65565b50610b616001600255565b5050505050565b6060816001600160a01b03166354fd4d506040518163ffffffff1660e01b8152600401600060405180830381865afa158015610ba8573d6000803e3d6000fd5b505050506040513d6000823e601f3d908101601f191682016040526106169190810190611e84565b6001600160a01b038116600090815260076020908152604091829020805483518184028101840190945280845260609392830182828015610c3057602002820191906000526020600020905b815481526020019060010190808311610c1c575b50505050509050919050565b600080516020611fd9833981519152610c54816116fd565b6000838152600660205260409020546001600160401b0316610c885760405162461bcd60e51b815260040161066890611db5565b600083815260066020526040812054610cb2908490600160401b90046001600160401b0316611e4f565b90506312cc03006001600160401b0382161115610d115760405162461bcd60e51b815260206004820152601e60248201527f4475726174696f6e2065786365656473206d6178696d756d206c696d697400006044820152606401610668565b600084815260066020908152604091829020805467ffffffffffffffff60401b1916600160401b6001600160401b03861690810291909117909155915191825285917f0a96b3a9b8c2c2e35fae1ef064d429b87564ec1ed72bf0f3409a4d80b9989ba8910160405180910390a250505050565b6000818152600660205260408120546001600160401b0316610db85760405162461bcd60e51b815260040161066890611db5565b50600090815260066020526040902054600160401b90046001600160401b0316421190565b600080516020611ff9833981519152610df5816116fd565b6109f46118a4565b600480546040516331a9108f60e11b815291820184905233916001600160a01b0390911690636352211e90602401602060405180830381865afa158015610e48573d6000803e3d6000fd5b505050506040513d601f19601f82011682018060405250810190610e6c9190611f36565b6001600160a01b031614610ecd5760405162461bcd60e51b815260206004820152602260248201527f43616c6c6572206973206e6f7420746865206f776e6572206f6620746865204e604482015261119560f21b6064820152608401610668565b6000828152600660205260409020546001600160401b0316610f015760405162461bcd60e51b815260040161066890611db5565b600480546040516331a9108f60e11b81529182018490526000916001600160a01b0390911690636352211e90602401602060405180830381865afa158015610f4d573d6000803e3d6000fd5b505050506040513d601f19601f82011682018060405250810190610f719190611f36565b60048054604051632142170760e11b81526001600160a01b038085169382019390935285831660248201526044810187905292935016906342842e0e90606401600060405180830381600087803b158015610fcb57600080fd5b505af1158015610fdf573d6000803e3d6000fd5b5050505060005b336000908152600760205260409020548110156110da5733600090815260076020526040902080548591908390811061102157611021611dec565b9060005260206000200154036110d257336000908152600760205260409020805461104e90600190611f53565b8154811061105e5761105e611dec565b60009182526020808320909101543383526007909152604090912080548390811061108b5761108b611dec565b60009182526020808320909101929092553381526007909152604090208054806110b7576110b7611f66565b600190038181906000526020600020016000905590556110da565b600101610fe6565b506001600160a01b038083166000818152600760209081526040808320805460018101825590845291832090910187905551919284169186917f097558fc5104f86fab615951680b07855cae4f5bf4f205d054607e8bed9b2e7991a4505050565b6000918252602082815260408084206001600160a01b0393909316845291905290205460ff1690565b600061116f816116fd565b6001600160a01b0382166111c55760405162461bcd60e51b815260206004820152601860248201527f496e76616c696420636f6e7472616374206164647265737300000000000000006044820152606401610668565b6000826001600160a01b03166354fd4d506040518163ffffffff1660e01b8152600401600060405180830381865afa158015611205573d6000803e3d6000fd5b505050506040513d6000823e601f3d908101601f1916820160405261122d9190810190611e84565b604080518082018252600580825264312e302e3160d81b6020808401919091528351808501909452908352640322e302e360dc1b90830152919250600061127484846118df565b1215801561128c5750600061128984836118df565b13155b610b615760405162461bcd60e51b815260206004820152603060248201527f436f6e74726163742076657273696f6e206d757374206265206265747765656e60448201526f020312e302e3120616e6420322e302e360841b6064820152608401610668565b600080516020611fd9833981519152611309816116fd565b611311611804565b6000838152600660205260409020546001600160401b0316156113765760405162461bcd60e51b815260206004820152601760248201527f57617272616e747920616c7265616479206973737565640000000000000000006044820152606401610668565b6312cc03006001600160401b03831611156113d35760405162461bcd60e51b815260206004820152601e60248201527f4475726174696f6e2065786365656473206d6178696d756d206c696d697400006044820152606401610668565b4260006113e08483611e4f565b604080516060810182526001600160401b0380861682528084166020808401918252600184860181815260008d81526006845287812096518754955192511515600160801b0260ff60801b19938816600160401b026fffffffffffffffffffffffffffffffff1990971691909716179490941716939093179093553381526007835283812080549283018155815291909120018790555190915085907fd5398b7decb3e72ed8b4261f6d8e4193d7ce854c23844b1b537ec542622bf407906114c090859085906001600160401b0392831681529116602082015260400190565b60405180910390a25050505050565b600080516020611ff98339815191526114e7816116fd565b6114ef611804565b6114f761182a565b6001600160a01b03821661153f5760405162461bcd60e51b815260206004820152600f60248201526e496e76616c6964206164647265737360881b6044820152606401610668565b6003546040516001600160a01b038481166024830152600092169060440161090c565b60008281526020819052604090206001015461157d816116fd565b6107c18383611799565b7ff0c57e16840df040f15088dc2f81fe391c3923bec73e23a9662efc9c229c6a008054600160401b810460ff1615906001600160401b03166000811580156115cc5750825b90506000826001600160401b031660011480156115e85750303b155b9050811580156115f6575080155b156116145760405163f92ee8a960e01b815260040160405180910390fd5b845467ffffffffffffffff19166001178555831561163e57845460ff60401b1916600160401b1785555b611656600080516020611ff98339815191528a611707565b5061166f600080516020611fd983398151915289611707565b5061167b60008a611707565b50600480546001600160a01b03808a166001600160a01b031992831617909255600380549289169290911691909117905583156116f257845460ff60401b19168555604051600181527fc7f505b2f371ae2175ee4913f4499e1f2633a7b5936321eed1cdaeb6115181d29060200160405180910390a15b505050505050505050565b6109f48133611a74565b6000611713838361113b565b611791576000838152602081815260408083206001600160a01b03861684529091529020805460ff191660011790556117493390565b6001600160a01b0316826001600160a01b0316847f2f8788117e7eff1d82e926ec794901d17c78024a50270940304540a733656f0d60405160405180910390a4506001610616565b506000610616565b60006117a5838361113b565b15611791576000838152602081815260408083206001600160a01b0386168085529252808320805460ff1916905551339286917ff6391f5c32d9c69d2a47ea670b442974b53935d1edc7fd64eb21e047a839171b9190a4506001610616565b60015460ff16156118285760405163d93c066560e01b815260040160405180910390fd5b565b600280540361184c57604051633ee5aeb560e01b815260040160405180910390fd5b60028055565b61185a611aad565b6001805460ff191690557f5db9ee0a495bf2e6ff9c91a7834c1ba4fdd244a5e8aa4e537bd38aeae4b073aa335b6040516001600160a01b03909116815260200160405180910390a1565b6118ac611804565b6001805460ff1916811790557f62e78cea01bee320cd4e420270b5ea74000d11b0c9f74754ebdbfc544b05a25833611887565b6000828282805b83518210806118f55750825181105b15611a67576000805b855184108015611933575085848151811061191b5761191b611dec565b6020910101516001600160f81b031916601760f91b14155b1561198a57603086858151811061194c5761194c611dec565b016020015161195e919060f81c611f7c565b60ff1661196c83600a611f95565b6119769190611fac565b91508361198281611fbf565b9450506118fe565b8451831080156119bf57508483815181106119a7576119a7611dec565b6020910101516001600160f81b031916601760f91b14155b15611a165760308584815181106119d8576119d8611dec565b01602001516119ea919060f81c611f7c565b60ff166119f882600a611f95565b611a029190611fac565b905082611a0e81611fbf565b93505061198a565b80821015611a2e576000199650505050505050610616565b80821115611a455760019650505050505050610616565b83611a4f81611fbf565b9450508280611a5d90611fbf565b93505050506118e6565b5060009695505050505050565b611a7e828261113b565b6109d05760405163e2517d3f60e01b81526001600160a01b038216600482015260248101839052604401610668565b60015460ff1661182857604051638dfc202b60e01b815260040160405180910390fd5b600060208284031215611ae257600080fd5b81356001600160e01b031981168114611afa57600080fd5b9392505050565b600060208284031215611b1357600080fd5b5035919050565b60008083601f840112611b2c57600080fd5b5081356001600160401b03811115611b4357600080fd5b6020830191508360208260051b8501011115611b5e57600080fd5b9250929050565b60008060208385031215611b7857600080fd5b82356001600160401b03811115611b8e57600080fd5b611b9a85828601611b1a565b90969095509350505050565b6001600160a01b03811681146109f457600080fd5b60008060408385031215611bce57600080fd5b823591506020830135611be081611ba6565b809150509250929050565b600060208284031215611bfd57600080fd5b8135611afa81611ba6565b60008060008060408587031215611c1e57600080fd5b84356001600160401b03811115611c3457600080fd5b611c4087828801611b1a565b90955093505060208501356001600160401b03811115611c5f57600080fd5b611c6b87828801611b1a565b95989497509550505050565b60005b83811015611c92578181015183820152602001611c7a565b50506000910152565b6020815260008251806020840152611cba816040850160208701611c77565b601f01601f19169190910160400192915050565b602080825282518282018190526000918401906040840190835b81811015611d06578351835260209384019390920191600101611ce8565b509095945050505050565b80356001600160401b0381168114611d2857600080fd5b919050565b60008060408385031215611d4057600080fd5b82359150611d5060208401611d11565b90509250929050565b60008060008060808587031215611d6f57600080fd5b8435611d7a81611ba6565b93506020850135611d8a81611ba6565b92506040850135611d9a81611ba6565b91506060850135611daa81611ba6565b939692955090935050565b60208082526017908201527f57617272616e747920646f6573206e6f74206578697374000000000000000000604082015260600190565b634e487b7160e01b600052603260045260246000fd5b60008251611e14818460208701611c77565b9190910192915050565b600060208284031215611e3057600080fd5b611afa82611d11565b634e487b7160e01b600052601160045260246000fd5b6001600160401b03818116838216019081111561061657610616611e39565b634e487b7160e01b600052604160045260246000fd5b600060208284031215611e9657600080fd5b81516001600160401b03811115611eac57600080fd5b8201601f81018413611ebd57600080fd5b80516001600160401b03811115611ed657611ed6611e6e565b604051601f8201601f19908116603f011681016001600160401b0381118282101715611f0457611f04611e6e565b604052818152828201602001861015611f1c57600080fd5b611f2d826020830160208601611c77565b95945050505050565b600060208284031215611f4857600080fd5b8151611afa81611ba6565b8181038181111561061657610616611e39565b634e487b7160e01b600052603160045260246000fd5b60ff828116828216039081111561061657610616611e39565b808202811582820484141761061657610616611e39565b8082018082111561061657610616611e39565b600060018201611fd157611fd1611e39565b506001019056fe9f2df0fed2c77648de5860a4cc508cd0818c85b8b8a1ab4ceeef8d981c8956a6a49807205ce4d355092ef5a8a18f56e8913cf4a201fbe287825b095693c21775a2646970667358221220f48e96b676e81793c67331c2311c94eb7b8e769e61e53a939dc74b40acda576b64736f6c634300081c0033",
  "linkReferences": {},
  "deployedLinkReferences": {}
}