{
  "_format": "hh-sol-artifact-1",
  "contractName": "WarrantyNFT",
  "sourceName": "contracts/nft.sol",
  "abi": [
    {
      "inputs": [],
      "name": "AccessControlBadConfirmation",
      "type": "error"
    },
    {
      "inputs": [
        {
          "internalType": "address",
          "name": "account",
          "type": "address"
        },
        {
          "internalType": "bytes32",
          "name": "neededRole",
          "type": "bytes32"
        }
      ],
      "name": "AccessControlUnauthorizedAccount",
      "type": "error"
    },
    {
      "inputs": [
        {
          "internalType": "address",
          "name": "sender",
          "type": "address"
        },
        {
          "internalType": "uint256",
          "name": "tokenId",
          "type": "uint256"
        },
        {
          "internalType": "address",
          "name": "owner",
          "type": "address"
        }
      ],
      "name": "ERC721IncorrectOwner",
      "type": "error"
    },
    {
      "inputs": [
        {
          "internalType": "address",
          "name": "operator",
          "type": "address"
        },
        {
          "internalType": "uint256",
          "name": "tokenId",
          "type": "uint256"
        }
      ],
      "name": "ERC721InsufficientApproval",
      "type": "error"
    },
    {
      "inputs": [
        {
          "internalType": "address",
          "name": "approver",
          "type": "address"
        }
      ],
      "name": "ERC721InvalidApprover",
      "type": "error"
    },
    {
      "inputs": [
        {
          "internalType": "address",
          "name": "operator",
          "type": "address"
        }
      ],
      "name": "ERC721InvalidOperator",
      "type": "error"
    },
    {
      "inputs": [
        {
          "internalType": "address",
          "name": "owner",
          "type": "address"
        }
      ],
      "name": "ERC721InvalidOwner",
      "type": "error"
    },
    {
      "inputs": [
        {
          "internalType": "address",
          "name": "receiver",
          "type": "address"
        }
      ],
      "name": "ERC721InvalidReceiver",
      "type": "error"
    },
    {
      "inputs": [
        {
          "internalType": "address",
          "name": "sender",
          "type": "address"
        }
      ],
      "name": "ERC721InvalidSender",
      "type": "error"
    },
    {
      "inputs": [
        {
          "internalType": "uint256",
          "name": "tokenId",
          "type": "uint256"
        }
      ],
      "name": "ERC721NonexistentToken",
      "type": "error"
    },
    {
      "inputs": [],
      "name": "EnforcedPause",
      "type": "error"
    },
    {
      "inputs": [],
      "name": "ExpectedPause",
      "type": "error"
    },
    {
      "inputs": [],
      "name": "InvalidInitialization",
      "type": "error"
    },
    {
      "inputs": [],
      "name": "NotInitializing",
      "type": "error"
    },
    {
      "anonymous": false,
      "inputs": [
        {
          "indexed": true,
          "internalType": "address",
          "name": "owner",
          "type": "address"
        },
        {
          "indexed": true,
          "internalType": "address",
          "name": "approved",
          "type": "address"
        },
        {
          "indexed": true,
          "internalType": "uint256",
          "name": "tokenId",
          "type": "uint256"
        }
      ],
      "name": "Approval",
      "type": "event"
    },
    {
      "anonymous": false,
      "inputs": [
        {
          "indexed": true,
          "internalType": "address",
          "name": "owner",
          "type": "address"
        },
        {
          "indexed": true,
          "internalType": "address",
          "name": "operator",
          "type": "address"
        },
        {
          "indexed": false,
          "internalType": "bool",
          "name": "approved",
          "type": "bool"
        }
      ],
      "name": "ApprovalForAll",
      "type": "event"
    },
    {
      "anonymous": false,
      "inputs": [
        {
          "indexed": false,
          "internalType": "uint64",
          "name": "version",
          "type": "uint64"
        }
      ],
      "name": "Initialized",
      "type": "event"
    },
    {
      "anonymous": false,
      "inputs": [
        {
          "indexed": false,
          "internalType": "address",
          "name": "account",
          "type": "address"
        }
      ],
      "name": "Paused",
      "type": "event"
    },
    {
      "anonymous": false,
      "inputs": [
        {
          "indexed": true,
          "internalType": "bytes32",
          "name": "role",
          "type": "bytes32"
        },
        {
          "indexed": true,
          "internalType": "bytes32",
          "name": "previousAdminRole",
          "type": "bytes32"
        },
        {
          "indexed": true,
          "internalType": "bytes32",
          "name": "newAdminRole",
          "type": "bytes32"
        }
      ],
      "name": "RoleAdminChanged",
      "type": "event"
    },
    {
      "anonymous": false,
      "inputs": [
        {
          "indexed": true,
          "internalType": "bytes32",
          "name": "role",
          "type": "bytes32"
        },
        {
          "indexed": true,
          "internalType": "address",
          "name": "account",
          "type": "address"
        },
        {
          "indexed": true,
          "internalType": "address",
          "name": "sender",
          "type": "address"
        }
      ],
      "name": "RoleGranted",
      "type": "event"
    },
    {
      "anonymous": false,
      "inputs": [
        {
          "indexed": true,
          "internalType": "bytes32",
          "name": "role",
          "type": "bytes32"
        },
        {
          "indexed": true,
          "internalType": "address",
          "name": "account",
          "type": "address"
        },
        {
          "indexed": true,
          "internalType": "address",
          "name": "sender",
          "type": "address"
        }
      ],
      "name": "RoleRevoked",
      "type": "event"
    },
    {
      "anonymous": false,
      "inputs": [
        {
          "indexed": true,
          "internalType": "address",
          "name": "from",
          "type": "address"
        },
        {
          "indexed": true,
          "internalType": "address",
          "name": "to",
          "type": "address"
        },
        {
          "indexed": true,
          "internalType": "uint256",
          "name": "tokenId",
          "type": "uint256"
        }
      ],
      "name": "Transfer",
      "type": "event"
    },
    {
      "anonymous": false,
      "inputs": [
        {
          "indexed": false,
          "internalType": "address",
          "name": "account",
          "type": "address"
        }
      ],
      "name": "Unpaused",
      "type": "event"
    },
    {
      "anonymous": false,
      "inputs": [
        {
          "indexed": true,
          "internalType": "uint256",
          "name": "tokenId",
          "type": "uint256"
        },
        {
          "indexed": false,
          "internalType": "uint64",
          "name": "issuedAt",
          "type": "uint64"
        },
        {
          "indexed": false,
          "internalType": "uint64",
          "name": "expiryAt",
          "type": "uint64"
        }
      ],
      "name": "WarrantyIssued",
      "type": "event"
    },
    {
      "inputs": [],
      "name": "DEFAULT_ADMIN_ROLE",
      "outputs": [
        {
          "internalType": "bytes32",
          "name": "",
          "type": "bytes32"
        }
      ],
      "stateMutability": "view",
      "type": "function"
    },
    {
      "inputs": [],
      "name": "MINTER_ROLE",
      "outputs": [
        {
          "internalType": "bytes32",
          "name": "",
          "type": "bytes32"
        }
      ],
      "stateMutability": "view",
      "type": "function"
    },
    {
      "inputs": [
        {
          "internalType": "address",
          "name": "to",
          "type": "address"
        },
        {
          "internalType": "uint256",
          "name": "tokenId",
          "type": "uint256"
        }
      ],
      "name": "approve",
      "outputs": [],
      "stateMutability": "nonpayable",
      "type": "function"
    },
    {
      "inputs": [
        {
          "internalType": "address",
          "name": "owner",
          "type": "address"
        }
      ],
      "name": "balanceOf",
      "outputs": [
        {
          "internalType": "uint256",
          "name": "",
          "type": "uint256"
        }
      ],
      "stateMutability": "view",
      "type": "function"
    },
    {
      "inputs": [
        {
          "internalType": "uint256",
          "name": "tokenId",
          "type": "uint256"
        }
      ],
      "name": "getApproved",
      "outputs": [
        {
          "internalType": "address",
          "name": "",
          "type": "address"
        }
      ],
      "stateMutability": "view",
      "type": "function"
    },
    {
      "inputs": [
        {
          "internalType": "bytes32",
          "name": "role",
          "type": "bytes32"
        }
      ],
      "name": "getRoleAdmin",
      "outputs": [
        {
          "internalType": "bytes32",
          "name": "",
          "type": "bytes32"
        }
      ],
      "stateMutability": "view",
      "type": "function"
    },
    {
      "inputs": [
        {
          "internalType": "bytes32",
          "name": "role",
          "type": "bytes32"
        },
        {
          "internalType": "address",
          "name": "account",
          "type": "address"
        }
      ],
      "name": "grantRole",
      "outputs": [],
      "stateMutability": "nonpayable",
      "type": "function"
    },
    {
      "inputs": [
        {
          "internalType": "bytes32",
          "name": "role",
          "type": "bytes32"
        },
        {
          "internalType": "address",
          "name": "account",
          "type": "address"
        }
      ],
      "name": "hasRole",
      "outputs": [
        {
          "internalType": "bool",
          "name": "",
          "type": "bool"
        }
      ],
      "stateMutability": "view",
      "type": "function"
    },
    {
      "inputs": [
        {
          "internalType": "address",
          "name": "admin",
          "type": "address"
        },
        {
          "internalType": "address",
          "name": "minter",
          "type": "address"
        }
      ],
      "name": "initialize",
      "outputs": [],
      "stateMutability": "nonpayable",
      "type": "function"
    },
    {
      "inputs": [
        {
          "internalType": "address",
          "name": "owner",
          "type": "address"
        },
        {
          "internalType": "address",
          "name": "operator",
          "type": "address"
        }
      ],
      "name": "isApprovedForAll",
      "outputs": [
        {
          "internalType": "bool",
          "name": "",
          "type": "bool"
        }
      ],
      "stateMutability": "view",
      "type": "function"
    },
    {
      "inputs": [
        {
          "internalType": "address[]",
          "name": "to",
          "type": "address[]"
        },
        {
          "internalType": "string[]",
          "name": "uris",
          "type": "string[]"
        },
        {
          "internalType": "uint64[]",
          "name": "duration",
          "type": "uint64[]"
        }
      ],
      "name": "multipleMint",
      "outputs": [],
      "stateMutability": "nonpayable",
      "type": "function"
    },
    {
      "inputs": [],
      "name": "name",
      "outputs": [
        {
          "internalType": "string",
          "name": "",
          "type": "string"
        }
      ],
      "stateMutability": "view",
      "type": "function"
    },
    {
      "inputs": [
        {
          "internalType": "uint256",
          "name": "tokenId",
          "type": "uint256"
        }
      ],
      "name": "ownerOf",
      "outputs": [
        {
          "internalType": "address",
          "name": "",
          "type": "address"
        }
      ],
      "stateMutability": "view",
      "type": "function"
    },
    {
      "inputs": [],
      "name": "pause",
      "outputs": [],
      "stateMutability": "nonpayable",
      "type": "function"
    },
    {
      "inputs": [],
      "name": "paused",
      "outputs": [
        {
          "internalType": "bool",
          "name": "",
          "type": "bool"
        }
      ],
      "stateMutability": "view",
      "type": "function"
    },
    {
      "inputs": [
        {
          "internalType": "bytes32",
          "name": "role",
          "type": "bytes32"
        },
        {
          "internalType": "address",
          "name": "callerConfirmation",
          "type": "address"
        }
      ],
      "name": "renounceRole",
      "outputs": [],
      "stateMutability": "nonpayable",
      "type": "function"
    },
    {
      "inputs": [
        {
          "internalType": "bytes32",
          "name": "role",
          "type": "bytes32"
        },
        {
          "internalType": "address",
          "name": "account",
          "type": "address"
        }
      ],
      "name": "revokeRole",
      "outputs": [],
      "stateMutability": "nonpayable",
      "type": "function"
    },
    {
      "inputs": [
        {
          "internalType": "address",
          "name": "to",
          "type": "address"
        },
        {
          "internalType": "string",
          "name": "uri",
          "type": "string"
        },
        {
          "internalType": "uint64",
          "name": "duration",
          "type": "uint64"
        }
      ],
      "name": "safeMint",
      "outputs": [],
      "stateMutability": "nonpayable",
      "type": "function"
    },
    {
      "inputs": [
        {
          "internalType": "address",
          "name": "from",
          "type": "address"
        },
        {
          "internalType": "address",
          "name": "to",
          "type": "address"
        },
        {
          "internalType": "uint256",
          "name": "tokenId",
          "type": "uint256"
        }
      ],
      "name": "safeTransferFrom",
      "outputs": [],
      "stateMutability": "nonpayable",
      "type": "function"
    },
    {
      "inputs": [
        {
          "internalType": "address",
          "name": "from",
          "type": "address"
        },
        {
          "internalType": "address",
          "name": "to",
          "type": "address"
        },
        {
          "internalType": "uint256",
          "name": "tokenId",
          "type": "uint256"
        },
        {
          "internalType": "bytes",
          "name": "data",
          "type": "bytes"
        }
      ],
      "name": "safeTransferFrom",
      "outputs": [],
      "stateMutability": "nonpayable",
      "type": "function"
    },
    {
      "inputs": [
        {
          "internalType": "address",
          "name": "operator",
          "type": "address"
        },
        {
          "internalType": "bool",
          "name": "approved",
          "type": "bool"
        }
      ],
      "name": "setApprovalForAll",
      "outputs": [],
      "stateMutability": "nonpayable",
      "type": "function"
    },
    {
      "inputs": [
        {
          "internalType": "bytes4",
          "name": "interfaceId",
          "type": "bytes4"
        }
      ],
      "name": "supportsInterface",
      "outputs": [
        {
          "internalType": "bool",
          "name": "",
          "type": "bool"
        }
      ],
      "stateMutability": "view",
      "type": "function"
    },
    {
      "inputs": [],
      "name": "symbol",
      "outputs": [
        {
          "internalType": "string",
          "name": "",
          "type": "string"
        }
      ],
      "stateMutability": "view",
      "type": "function"
    },
    {
      "inputs": [
        {
          "internalType": "uint256",
          "name": "tokenId",
          "type": "uint256"
        }
      ],
      "name": "tokenURI",
      "outputs": [
        {
          "internalType": "string",
          "name": "",
          "type": "string"
        }
      ],
      "stateMutability": "view",
      "type": "function"
    },
    {
      "inputs": [],
      "name": "totalSupply",
      "outputs": [
        {
          "internalType": "uint256",
          "name": "",
          "type": "uint256"
        }
      ],
      "stateMutability": "view",
      "type": "function"
    },
    {
      "inputs": [
        {
          "internalType": "address",
          "name": "from",
          "type": "address"
        },
        {
          "internalType": "address",
          "name": "to",
          "type": "address"
        },
        {
          "internalType": "uint256",
          "name": "tokenId",
          "type": "uint256"
        }
      ],
      "name": "transferFrom",
      "outputs": [],
      "stateMutability": "nonpayable",
      "type": "function"
    },
    {
      "inputs": [],
      "name": "unpause",
      "outputs": [],
      "stateMutability": "nonpayable",
      "type": "function"
    }
  ],
  "bytecode": "0x6080604052348015600f57600080fd5b50611d798061001f6000396000f3fe608060405234801561001057600080fd5b50600436106101a95760003560e01c80636352211e116100f9578063a22cb46511610097578063d539139311610071578063d53913931461036c578063d547741f14610381578063e63137bf14610394578063e985e9c5146103a757600080fd5b8063a22cb46514610333578063b88d4fde14610346578063c87b56dd1461035957600080fd5b806391d14854116100d357806391d14854146102fd578063928d8e871461031057806395d89b4114610323578063a217fddf1461032b57600080fd5b80636352211e146102cf57806370a08231146102e25780638456cb59146102f557600080fd5b8063248a9ca3116101665780633f4ba83a116101405780633f4ba83a1461028957806342842e0e14610291578063485cc955146102a45780635c975abb146102b757600080fd5b8063248a9ca3146102505780632f2ff15d1461026357806336568abe1461027657600080fd5b806301ffc9a7146101ae57806306fdde03146101d6578063081812fc146101eb578063095ea7b31461021657806318160ddd1461022b57806323b872dd1461023d575b600080fd5b6101c16101bc36600461161b565b6103ba565b60405190151581526020015b60405180910390f35b6101de6103cb565b6040516101cd9190611685565b6101fe6101f9366004611698565b61046f565b6040516001600160a01b0390911681526020016101cd565b6102296102243660046116cd565b610484565b005b6000545b6040519081526020016101cd565b61022961024b3660046116f7565b610493565b61022f61025e366004611698565b610523565b610229610271366004611734565b610545565b610229610284366004611734565b610561565b610229610599565b61022961029f3660046116f7565b6105af565b6102296102b2366004611760565b6105ca565b600080516020611d248339815191525460ff166101c1565b6101fe6102dd366004611698565b61074e565b61022f6102f036600461178a565b610759565b6102296107b5565b6101c161030b366004611734565b6107c8565b61022961031e3660046117f0565b610800565b6101de6109cf565b61022f600081565b610229610341366004611893565b610a0e565b6102296103543660046118e5565b610a19565b6101de610367366004611698565b610a31565b61022f600080516020611ce483398151915281565b61022961038f366004611734565b610ad3565b6102296103a23660046119dd565b610aef565b6101c16103b5366004611760565b610be0565b60006103c582610c2d565b92915050565b600080516020611cc483398151915280546060919081906103eb90611a71565b80601f016020809104026020016040519081016040528092919081815260200182805461041790611a71565b80156104645780601f1061043957610100808354040283529160200191610464565b820191906000526020600020905b81548152906001019060200180831161044757829003601f168201915b505050505091505090565b600061047a82610c52565b506103c582610c8a565b61048f828233610cc4565b5050565b6001600160a01b0382166104c257604051633250574960e11b8152600060048201526024015b60405180910390fd5b60006104cf838333610cd1565b9050836001600160a01b0316816001600160a01b03161461051d576040516364283d7b60e01b81526001600160a01b03808616600483015260248201849052821660448201526064016104b9565b50505050565b6000908152600080516020611d04833981519152602052604090206001015490565b61054e82610523565b61055781610ddb565b61051d8383610de5565b6001600160a01b038116331461058a5760405163334bd91960e11b815260040160405180910390fd5b6105948282610e8a565b505050565b60006105a481610ddb565b6105ac610f06565b50565b61059483838360405180602001604052806000815250610a19565b7ff0c57e16840df040f15088dc2f81fe391c3923bec73e23a9662efc9c229c6a008054600160401b810460ff1615906001600160401b031660008115801561060f5750825b90506000826001600160401b0316600114801561062b5750303b155b905081158015610639575080155b156106575760405163f92ee8a960e01b815260040160405180910390fd5b845467ffffffffffffffff19166001178555831561068157845460ff60401b1916600160401b1785555b6106ca6040518060400160405280600b81526020016a15d85c9c985b9d1e53919560aa1b8152506040518060400160405280600481526020016315d3919560e21b815250610f66565b6106d2610f78565b6106da610f82565b6106e5600088610de5565b506106fe600080516020611ce483398151915287610de5565b50831561074557845460ff60401b19168555604051600181527fc7f505b2f371ae2175ee4913f4499e1f2633a7b5936321eed1cdaeb6115181d29060200160405180910390a15b50505050505050565b60006103c582610c52565b6000600080516020611cc48339815191526001600160a01b038316610794576040516322718ad960e21b8152600060048201526024016104b9565b6001600160a01b039092166000908152600390920160205250604090205490565b60006107c081610ddb565b6105ac610f92565b6000918252600080516020611d04833981519152602090815260408084206001600160a01b0393909316845291905290205460ff1690565b600080516020611ce483398151915261081881610ddb565b610820610fdb565b858414801561082e57508382145b61087a5760405162461bcd60e51b815260206004820152601b60248201527f496e707574206172726179206c656e677468206d69736d61746368000000000060448201526064016104b9565b60005b868110156109c55760008054610894906001611ac1565b90506108c68989848181106108ab576108ab611ad4565b90506020020160208101906108c0919061178a565b8261100c565b610928818888858181106108dc576108dc611ad4565b90506020028101906108ee9190611aea565b8080601f01602080910402602001604051908101604052809392919081815260200183838082843760009201919091525061102692505050565b60008054908061093783611b30565b9190505550807fd5398b7decb3e72ed8b4261f6d8e4193d7ce854c23844b1b537ec542622bf4074287878681811061097157610971611ad4565b90506020020160208101906109869190611b49565b610999906001600160401b031642611ac1565b604080516001600160401b0393841681529290911660208301520160405180910390a25060010161087d565b5050505050505050565b7f80bb2b638cc20bc4d0a60d66940f3ab4a00c1d7b313497ca82fb0b4ab00793018054606091600080516020611cc4833981519152916103eb90611a71565b61048f33838361103e565b610a24848484610493565b61051d33858585856110ef565b6000818152600160205260409020805460609190610a4e90611a71565b80601f0160208091040260200160405190810160405280929190818152602001828054610a7a90611a71565b8015610ac75780601f10610a9c57610100808354040283529160200191610ac7565b820191906000526020600020905b815481529060010190602001808311610aaa57829003601f168201915b50505050509050919050565b610adc82610523565b610ae581610ddb565b61051d8383610e8a565b600080516020611ce4833981519152610b0781610ddb565b610b0f610fdb565b60008054610b1e906001611ac1565b9050610b2a868261100c565b610b6a8186868080601f01602080910402602001604051908101604052809392919081815260200183838082843760009201919091525061102692505050565b600080549080610b7983611b30565b909155508190507fd5398b7decb3e72ed8b4261f6d8e4193d7ce854c23844b1b537ec542622bf40742610bb56001600160401b03871682611ac1565b604080516001600160401b0393841681529290911660208301520160405180910390a2505050505050565b6001600160a01b0391821660009081527f80bb2b638cc20bc4d0a60d66940f3ab4a00c1d7b313497ca82fb0b4ab00793056020908152604080832093909416825291909152205460ff1690565b60006001600160e01b03198216637965db0b60e01b14806103c557506103c58261121a565b600080610c5e8361126a565b90506001600160a01b0381166103c557604051637e27328960e01b8152600481018490526024016104b9565b60009081527f80bb2b638cc20bc4d0a60d66940f3ab4a00c1d7b313497ca82fb0b4ab007930460205260409020546001600160a01b031690565b61059483838360016112a4565b6000600080516020611cc483398151915281610cec8561126a565b90506001600160a01b03841615610d0857610d088185876113ba565b6001600160a01b03811615610d4857610d256000866000806112a4565b6001600160a01b0381166000908152600383016020526040902080546000190190555b6001600160a01b03861615610d79576001600160a01b03861660009081526003830160205260409020805460010190555b600085815260028301602052604080822080546001600160a01b0319166001600160a01b038a811691821790925591518893918516917fddf252ad1be2c89b69c2b068fc378daa952ba7f163c4a11628f55a4df523b3ef91a495945050505050565b6105ac813361141e565b6000600080516020611d04833981519152610e0084846107c8565b610e80576000848152602082815260408083206001600160a01b03871684529091529020805460ff19166001179055610e363390565b6001600160a01b0316836001600160a01b0316857f2f8788117e7eff1d82e926ec794901d17c78024a50270940304540a733656f0d60405160405180910390a460019150506103c5565b60009150506103c5565b6000600080516020611d04833981519152610ea584846107c8565b15610e80576000848152602082815260408083206001600160a01b0387168085529252808320805460ff1916905551339287917ff6391f5c32d9c69d2a47ea670b442974b53935d1edc7fd64eb21e047a839171b9190a460019150506103c5565b610f0e611457565b600080516020611d24833981519152805460ff191681557f5db9ee0a495bf2e6ff9c91a7834c1ba4fdd244a5e8aa4e537bd38aeae4b073aa335b6040516001600160a01b03909116815260200160405180910390a150565b610f6e611487565b61048f82826114d0565b610f80611487565b565b610f8a611487565b610f80611501565b610f9a610fdb565b600080516020611d24833981519152805460ff191660011781557f62e78cea01bee320cd4e420270b5ea74000d11b0c9f74754ebdbfc544b05a25833610f48565b600080516020611d248339815191525460ff1615610f805760405163d93c066560e01b815260040160405180910390fd5b61048f828260405180602001604052806000815250611522565b60008281526001602052604090206105948282611bab565b600080516020611cc48339815191526001600160a01b03831661107f57604051630b61174360e31b81526001600160a01b03841660048201526024016104b9565b6001600160a01b038481166000818152600584016020908152604080832094881680845294825291829020805460ff191687151590811790915591519182527f17307eab39ab6107e8899845ad3d59bd9653f200f220920489ca2b5937696c31910160405180910390a350505050565b6001600160a01b0383163b1561121357604051630a85bd0160e11b81526001600160a01b0384169063150b7a0290611131908890889087908790600401611c69565b6020604051808303816000875af192505050801561116c575060408051601f3d908101601f1916820190925261116991810190611ca6565b60015b6111d5573d80801561119a576040519150601f19603f3d011682016040523d82523d6000602084013e61119f565b606091505b5080516000036111cd57604051633250574960e11b81526001600160a01b03851660048201526024016104b9565b805181602001fd5b6001600160e01b03198116630a85bd0160e11b1461121157604051633250574960e11b81526001600160a01b03851660048201526024016104b9565b505b5050505050565b60006001600160e01b031982166380ac58cd60e01b148061124b57506001600160e01b03198216635b5e139f60e01b145b806103c557506301ffc9a760e01b6001600160e01b03198316146103c5565b60009081527f80bb2b638cc20bc4d0a60d66940f3ab4a00c1d7b313497ca82fb0b4ab007930260205260409020546001600160a01b031690565b600080516020611cc483398151915281806112c757506001600160a01b03831615155b156113895760006112d785610c52565b90506001600160a01b038416158015906113035750836001600160a01b0316816001600160a01b031614155b801561131657506113148185610be0565b155b1561133f5760405163a9fbf51f60e01b81526001600160a01b03851660048201526024016104b9565b82156113875784866001600160a01b0316826001600160a01b03167f8c5be1e5ebec7d5bd14f71427d1e84f3dd0314c0f7b2291e5b200ac8c7c3b92560405160405180910390a45b505b600093845260040160205250506040902080546001600160a01b0319166001600160a01b0392909216919091179055565b6113c583838361153a565b610594576001600160a01b0383166113f357604051637e27328960e01b8152600481018290526024016104b9565b60405163177e802f60e01b81526001600160a01b0383166004820152602481018290526044016104b9565b61142882826107c8565b61048f5760405163e2517d3f60e01b81526001600160a01b0382166004820152602481018390526044016104b9565b600080516020611d248339815191525460ff16610f8057604051638dfc202b60e01b815260040160405180910390fd5b7ff0c57e16840df040f15088dc2f81fe391c3923bec73e23a9662efc9c229c6a0054600160401b900460ff16610f8057604051631afcd79f60e31b815260040160405180910390fd5b6114d8611487565b600080516020611cc4833981519152806114f28482611bab565b506001810161051d8382611bab565b611509611487565b600080516020611d24833981519152805460ff19169055565b61152c83836115a0565b6105943360008585856110ef565b60006001600160a01b038316158015906115985750826001600160a01b0316846001600160a01b0316148061157457506115748484610be0565b806115985750826001600160a01b031661158d83610c8a565b6001600160a01b0316145b949350505050565b6001600160a01b0382166115ca57604051633250574960e11b8152600060048201526024016104b9565b60006115d883836000610cd1565b90506001600160a01b03811615610594576040516339e3563760e11b8152600060048201526024016104b9565b6001600160e01b0319811681146105ac57600080fd5b60006020828403121561162d57600080fd5b813561163881611605565b9392505050565b6000815180845260005b8181101561166557602081850181015186830182015201611649565b506000602082860101526020601f19601f83011685010191505092915050565b602081526000611638602083018461163f565b6000602082840312156116aa57600080fd5b5035919050565b80356001600160a01b03811681146116c857600080fd5b919050565b600080604083850312156116e057600080fd5b6116e9836116b1565b946020939093013593505050565b60008060006060848603121561170c57600080fd5b611715846116b1565b9250611723602085016116b1565b929592945050506040919091013590565b6000806040838503121561174757600080fd5b82359150611757602084016116b1565b90509250929050565b6000806040838503121561177357600080fd5b61177c836116b1565b9150611757602084016116b1565b60006020828403121561179c57600080fd5b611638826116b1565b60008083601f8401126117b757600080fd5b5081356001600160401b038111156117ce57600080fd5b6020830191508360208260051b85010111156117e957600080fd5b9250929050565b6000806000806000806060878903121561180957600080fd5b86356001600160401b0381111561181f57600080fd5b61182b89828a016117a5565b90975095505060208701356001600160401b0381111561184a57600080fd5b61185689828a016117a5565b90955093505060408701356001600160401b0381111561187557600080fd5b61188189828a016117a5565b979a9699509497509295939492505050565b600080604083850312156118a657600080fd5b6118af836116b1565b9150602083013580151581146118c457600080fd5b809150509250929050565b634e487b7160e01b600052604160045260246000fd5b600080600080608085870312156118fb57600080fd5b611904856116b1565b9350611912602086016116b1565b92506040850135915060608501356001600160401b0381111561193457600080fd5b8501601f8101871361194557600080fd5b80356001600160401b0381111561195e5761195e6118cf565b604051601f8201601f19908116603f011681016001600160401b038111828210171561198c5761198c6118cf565b6040528181528282016020018910156119a457600080fd5b8160208401602083013760006020838301015280935050505092959194509250565b80356001600160401b03811681146116c857600080fd5b600080600080606085870312156119f357600080fd5b6119fc856116b1565b935060208501356001600160401b03811115611a1757600080fd5b8501601f81018713611a2857600080fd5b80356001600160401b03811115611a3e57600080fd5b876020828401011115611a5057600080fd5b60209190910193509150611a66604086016119c6565b905092959194509250565b600181811c90821680611a8557607f821691505b602082108103611aa557634e487b7160e01b600052602260045260246000fd5b50919050565b634e487b7160e01b600052601160045260246000fd5b808201808211156103c5576103c5611aab565b634e487b7160e01b600052603260045260246000fd5b6000808335601e19843603018112611b0157600080fd5b8301803591506001600160401b03821115611b1b57600080fd5b6020019150368190038213156117e957600080fd5b600060018201611b4257611b42611aab565b5060010190565b600060208284031215611b5b57600080fd5b611638826119c6565b601f82111561059457806000526020600020601f840160051c81016020851015611b8b5750805b601f840160051c820191505b818110156112135760008155600101611b97565b81516001600160401b03811115611bc457611bc46118cf565b611bd881611bd28454611a71565b84611b64565b6020601f821160018114611c0c5760008315611bf45750848201515b600019600385901b1c1916600184901b178455611213565b600084815260208120601f198516915b82811015611c3c5787850151825560209485019460019092019101611c1c565b5084821015611c5a5786840151600019600387901b60f8161c191681555b50505050600190811b01905550565b6001600160a01b0385811682528416602082015260408101839052608060608201819052600090611c9c9083018461163f565b9695505050505050565b600060208284031215611cb857600080fd5b81516116388161160556fe80bb2b638cc20bc4d0a60d66940f3ab4a00c1d7b313497ca82fb0b4ab00793009f2df0fed2c77648de5860a4cc508cd0818c85b8b8a1ab4ceeef8d981c8956a602dd7bc7dec4dceedda775e58dd541e08a116c6c53815c0bd028192f7b626800cd5ed15c6e187e77e9aee88184c21f4f2182ab5827cb3b7e07fbedcd63f03300a2646970667358221220511415e134dcd351e2d1f5ad1f2f00a0ac449582918df556b56d521ca4ac773c64736f6c634300081c0033",
  "linkReferences": {},
  "deployedLinkReferences": {}
}